:020000040001F9
:10B00000B04900208DB4010095B4010097B401004F
:10B0100099B401009BB401009DB401000000000040
:10B020000000000000000000000000009FB40100CC
:10B030000000000000000000A1B40100A3B4010062
:10B04000A5B40100A5B40100ADB90100A5B401008B
:10B05000A5B40100A5B401009DB50100A5B401008F
:10B06000A5B40100A5B40100A5B40100A5B4010078
:10B07000A5B40100A5B40100A5B40100A5B4010068
:10B08000A5B4010005B70100A5B40100A5B40100F5
:10B0900029B70100A5B401002DB70100A5B4010036
:10B0A000A5B40100A5B40100A5B40100A5B4010038
:10B0B000A5B40100A5B401000000000000000000DC
:10B0C000A5B40100A5B40100A5B40100A5B4010018
:10B0D000A5B40100A5B401000000000000000000BC
:10B0E0000000000000000000000000000000000060
:10B0F0000000000000000000000000000000000050
:10B10000000000000000000000000000000000003F
:10B11000000000000000000000000000000000002F
:10B40000DFF80CD000F08CF80048004735F101005F
:10B41000B0490020401E00BF00BF00BF00BF00BFFA
:10B4200000BF00BF00BF00BF00BF00BF00BF00BF24
:10B4300000BF00BF00BF00BF00BF00BF00BF00BF14
:10B4400000BF00BF00BF00BF00BF00BF00BF00BF04
:10B4500000BF00BF00BF00BF00BF00BF00BF00BFF4
:10B4600000BF00BF00BF00BF00BF00BF00BF00BFE4
:10B4700000BF00BF00BF00BF00BF00BF00BF00BFD4
:10B4800000BF00BF00BFC5D170470000064880471D
:10B4900006480047FEE7FEE7FEE7FEE7FEE7FEE7B9
:10B4A000FEE7FEE7FEE7000051B7010001B401002E
:10B4B00040EA01039B0703D009E008C9121F08C036
:10B4C000042AFAD203E011F8013B00F8013B521EB6
:10B4D000F9D27047D2B201E000F8012B491EFBD22D
:10B4E00070470022F6E710B513460A46044619468F
:10B4F000FFF7F0FF204610BD421C10F8011B002989
:10B50000FBD1801A704730B504460020034600E0A6
:10B510005B1C934203D2E05CCD5C401BF8D030BD95
:10B52000064C074D06E0E06840F0010394E8070090
:10B5300098471034AC42F6D3FFF766FFA00D020027
:10B54000C00D020070B58C1810F8015B15F00703F0
:10B5500001D110F8013B2A1106D110F8012B03E0AC
:10B5600010F8016B01F8016B5B1EF9D12B0705D4B4
:10B570000023521E0DD401F8013BFAE710F8013BFD
:10B58000CB1A921C03E013F8015B01F8015B521E19
:10B59000F9D5A142D8D3002070BD00002DE9F047B5
:10B5A0000025DFF8F090A8464FF4807601242F465E
:10B5B000304604F083F838B1D9F80403204203D0B0
:10B5C000304604F071F82543361D64007F1CB6B286
:10B5D000082FEDD34FF4BE74204604F06FF838B155
:10B5E000204604F061F82C4845F00045D0F8008072
:10B5F0002A4E15F0FF0F14D0012700242F420CD043
:10B6000009EB8401D1F81005D1F81015C0F304201E
:10B6100056F82420C1F3014190477F00641C082C98
:10B62000ECD3002D32DA0024B14609EB04004E467B
:10B6300090F95010491C26D090F8507027F0C005A2
:10B64000284602F005F856F82060E6B1BF0901204F
:10B65000A840A90001F1A041D1F8001710EA080F95
:10B66000C1F3014102D0022902D00CE003290AD122
:10B67000032F05D102290BD00221284604F005F83A
:10B6800039462846B047641C042CCED3BDE8F08769
:10B690000321F2E700600040100500504028002020
:10B6A00000F01F02012191404009800000F1E020DC
:10B6B000C0F88012704700F01F020121914040093C
:10B6C000800000F1E020C0F80011704700F01F0278
:10B6D000012191404009800000F1E020C0F80012F3
:10B6E00070474907090E002806DA00F00F0000F144
:10B6F000E02080F8141D704700F1E02080F800146D
:10B700007047000007480021C0F84011C0F84411FC
:10B71000C0F84811C0F84C11C0F80011C0F804116D
:10B7200005F0A0B80010014005F038B8074810B582
:10B73000406830B18047002807D0BDE8104000F0D5
:10B74000D7BABDE8104003F08FBB10BDBC2000206D
:10B75000F0B58C480022041D0378211D081D012628
:10B76000062B17D125782D0714D10D78C5F30315B5
:10B77000032D03D1077817F0F00F0ED0042D03D15D
:10B78000077817F0F00F08D0052D03D1057815F0D4
:10B79000F00F02D0062B09D014E04FF08055D5F8F9
:10B7A0004452794FC5F342353D6002E025782D07BC
:10B7B00008D10D78C5F30315032D03D1057815F0D5
:10B7C000F00F02D0062B06D01DE0704D2F6827F039
:10B7D00080772F601AE025782D0714D10D78C5F3F6
:10B7E0000315032D03D1077817F0F00F0ED0042DA9
:10B7F00003D1077817F0F00F08D0052D03D1057895
:10B8000015F0F00F02D0062B0AD015E04FF080455E
:10B81000C5F80C21C5F810215B4D2D1F2A6002E0F0
:10B8200025782D0708D10D78C5F30315032D03D115
:10B83000057815F0F00F02D0062B05D066E0524CCB
:10B8400003236434236002E023781B075ED1097868
:10B85000C1F30311052959D1007810F0F00F55D12B
:10B860004B4800684B4908604948001D0068091DA5
:10B870000860474808300068091D086044480C30DB
:10B880000068091D0860424810300068091D086002
:10B890003F4814300068091D08603D4818300068B2
:10B8A0003C49203108603A481C300068091D086096
:10B8B000374820300068091D08603548243000688A
:10B8C000091D0860324828300068091D08603048AA
:10B8D0002C300068091D08602D48303000682D4963
:10B8E000403108602A4834300068091D0860284843
:10B8F00038300068091D086025483C300068091D83
:10B900000860234840300068091D08601F487438EB
:10B91000016841F470010160BFF34F8FBFF36F8F77
:10B920004FF01021D1F80002002803DBD1F800020B
:10B93000002822DA184B1E6018480468002CFCD03E
:10B940001524C1F800420568002DFCD0C1F804425E
:10B9500001680029FCD01A6001680029FCD0BFF3FF
:10B960004F8F0A48F03801680D4A01F4E061114335
:10B970000160BFF34F8F00BFFDE70B490948086026
:10B98000F0BD0000E00F00F03C050040FCED00E0E1
:10B990000404001020C5004004E5014000E401401B
:10B9A0000400FA050090D003D02000200348007F57
:10B9B00008B105F041B804F0BBBF00009828002092
:10B9C00002E008C8121F08C1002AFAD17047704768
:10B9D000002001E001C1121F002AFBD170472DE9B0
:10B9E000FC5F0025168807461580406B1446894683
:10B9F000A8464FF00C0A11234FF0020B98B10178C2
:10BA00004846032E48D380F800B02288521C92B2D8
:10BA1000228083542288521C92B2228009F802109C
:10BA20002088401C20803A6BDAB12088494600F11A
:10BA30001205B54230D80B5420881023401C80B228
:10BA400020800B542088401C20800F202388155C08
:10BA5000401ECD54238840B25B1C23800028F5DAB9
:10BA6000454697F82E0030B133462246494603F04A
:10BA700069FA050011D197F82D0030B13246214600
:10BA8000484600F07BFF050007D1B87820B3208836
:10BA9000C846001DB04202D95046BDE8FC9F68462A
:10BAA00079DF0028F9D12188032008F801002088D7
:10BAB0001921401C80B2208008F800102088401C0A
:10BAC00080B2208000EB0801BDF8000005F020F8EE
:10BAD0000146208808442080F878B8B1228897F978
:10BAE0000310D31C4846B342D6D800F802B02288CF
:10BAF0000123521C92B2228083542288521C92B29B
:10BB0000228009F802102088401C20807868B8B193
:10BB1000218890F90020CB1C4846B342BCD800F8DD
:10BB200001B021880A23491C89B22180435421880D
:10BB3000491C89B2218009F801202088401C2080FE
:10BB4000388950B1CDE900464B460622022107F163
:10BB5000080005F053F805009FD1388A50B1CDE9AF
:10BB600000464B460722032107F1100005F046F876
:10BB7000050092D1388B50B1CDE900464B461522D5
:10BB8000142107F1180005F039F8050085D1386A4D
:10BB900030B133462246494601F00AFF0500DBD1A9
:10BBA000786A30B133462246494603F08CFB0500E3
:10BBB000D2D197F82C0038B1334622464946384650
:10BBC00004F0F4FB0500C7D1387838B1334622467B
:10BBD0004946384603F0ECFB0500BDD128465CE73A
:10BBE00010B501220221002001F04CFB08B107280A
:10BBF00010D107220221012001F044FB08B10728DF
:10BC000008D100210A22084601F03CFB08B10728B0
:10BC100000D1002010BD0000064800684FF400214C
:10BC2000044A8143121D1160111D00F400200860B8
:10BC3000704700000405005070B50024064D06E072
:10BC40006868012110F8340003F022FC641C287895
:10BC50008442F5D3002070BD78200020F8B5154649
:10BC60000C460646052A01D20720F8BD03F0F2FC77
:10BC700018B903F0C5FC0028F7D1104900204E6028
:10BC80000C70C1E902500E4D08610DE006EBC400D6
:10BC90006968009181788DF801100078094A694639
:10BCA00003F048FC0028E0D1641EE4B2EED2BDE807
:10BCB000F840054A0021024800F010B97820002021
:10BCC000980D0200D1E9010061DB0100BFF34F8F45
:10BCD00005480168054A01F4E06111430160BFF3C2
:10BCE0004F8F00BFFDE700000CED00E00400FA05F7
:10BCF0000EB500210091CDE901106A4644F2010021
:10BD0000FFF7E4FF014B1B68184700001C280020C8
:10BD100038B50C46074BA268097802EB420253F88B
:10BD20002250054A126A0092024604F10800236973
:10BD3000A84738BD8429002054200020074910B5A9
:10BD40000A7802EB820201EB8201091DFFF7E0FF96
:10BD5000BDE81040042004F083BB0000B828002098
:10BD600070B50F4B054605201C785E78A64216D0AC
:10BD70001C7818789E88B04201DA401C00E0002050
:10BD800018705E88D86804FB06002860986800EB8D
:10BD9000C4039B880B8050F834001060002070BDF5
:10BDA0008C2000202DE9F84F374C8246934660885E
:10BDB0000F46814265D835484FF000098DF8009054
:10BDC0004FF6FF780068454610EAE81012D01038A8
:10BDD00040B2002806DA00F00F0000F1E02090F8F1
:10BDE000140D03E000F1E02090F800044609012E54
:10BDF00001D107E00426684636DF022809D008B1E1
:10BE0000FFF776FF21786078A288904203DA401C21
:10BE100002E072B6F6E70020C0B2884207D065782B
:10BE20006078904201DA401C00E000206070012E32
:10BE300008D062B69DF8000037DF022802D008B1B2
:10BE4000FFF756FF45451AD0A068BAF1000F40F839
:10BE500035B00DD067B16188E0683A4605FB010056
:10BE60005146FFF725FBA06800EBC500878003E083
:10BE700000EBC500A0F804900020BDE8F88F042076
:10BE8000FBE70920F9E700008C20002004ED00E02A
:10BE90000EB504E0029ABDF804100098904702AA7B
:10BEA00001A96846FFF75CFF0028F3D00EBD000033
:10BEB00030B5CB0008339DB293074FF0000401D09A
:10BEC000072030BD044B9A602A44DA605C701C7015
:10BED00058809980002030BD8C200020074B9B6843
:10BEE00023B12AB120B10068037C1BB10820704740
:10BEF0000720704741744261002070479C20002059
:10BF000010B50446082902D00020FFF7F1FED4E95D
:10BF10000010BDE8104008471CB5044ACDE90001F7
:10BF200008216846FFF73EFF1CBD000001BF01006D
:10BF30002DE9F0478046994614460F4690074FF08A
:10BF4000000634D11C4D8CB304F0AEF90320C5F8C3
:10BF50001490287004F11800002107EB4703AC602F
:10BF600004EBC102491C167056709770506000EBCC
:10BF7000C3000329F4DBEE606E70AE701420FFF78F
:10BF80008FFB03211420FFF7ACFB1420FFF793FB7A
:10BF90000A49C1F8008003211120FFF7A2FB0748DE
:10BFA000001F006828610020BDE8F08701E007203D
:10BFB000FAE7AE60FBE700009C2000200815014076
:10BFC0002DE9F843DFF870900D461746D9F80810B0
:10BFD000044651B34CB3052D02D20720BDE8F883C7
:10BFE000606910B3607C012821D0002604F0D0FDE8
:10BFF000D9F80810804601EBC800694604F0EAFD54
:10C00000B8B1012100F8041B0C4910C0096880E890
:10C01000E200D9F8081001EBC8009DF8001041704B
:10C020001420FFF753FB0020D8E70820D6E72E4660
:10C03000DCE70420D2E700009C200020041501402A
:10C04000F8B5124E0446B168E1B1DCB16069C8B11F
:10C050000027277404F09CFD0546B068694600EB94
:10C06000C50004F0B7FD78B1022101704460B068EA
:10C070009DF8001000EBC50041701420FFF726FB6F
:10C080003846F8BD0820F8BD0420F8BD9C200020EB
:10C0900000B585B014216846FFF723FA0020009010
:10C0A000029064208DF80C009DF80D00012120F015
:10C0B0000F00401C20F0F00020308DF80D009DF89E
:10C0C0000E008DF8041020F00F00401C20F0F0004E
:10C0D00020308DF80E009DF80F00694620F0FF001B
:10C0E0008DF80F009DF8100020F00F00401C20F08C
:10C0F000F00020308DF81000044800F07EFB00288E
:10C1000001D0FFF7F5FD05B000BD00002C25002093
:10C110002DE9F0430546007D93B00E460024A0B102
:10C1200007949DF81C0020F00F00401C20F0F00048
:10C1300010308DF81C00707B8DF81D009DF81E00DE
:10C1400020F00600801C8DF81E001C216846FFF7B9
:10C15000C8F99DF8000040F002008DF80000297D2C
:10C1600011B140F0100001E020F010008DF8000047
:10C17000019403940494287D00B107A8CDE9050437
:10C1800001278DF8427042F61920ADF840000D9459
:10C19000B07B8DF83400F07B8DF835009DF83600CB
:10C1A000142120F00600801C20F019008DF83600C4
:10C1B000307B8DF8440008A8FFF793F90DF1400893
:10C1C0000DF13409ADF8287011A8CDE90889ADF852
:10C1D0002A40ADF82C700C90A888AB1D08AA6946BF
:10C1E000A2DF002838D1B06898B38DF8427042F6CB
:10C1F0000810ADF840000D94307C8DF834009DF8A7
:10C20000350020F0FF008DF835009DF8360020F055
:10C210000600801C20F019008DF836000EA8B168C9
:10C2200000F00FFE0646142108A8FFF75AF9ADF8F2
:10C2300028600EA8CDE90889ADF82A40ADF82C6039
:10C240000C90E88805F10E0208A9A3DF002803D1AD
:10C2500001E0FFE7EC81002013B0BDE8F0830000AF
:10C2600010B50D490D4804F094F8C1B20A481838C9
:10C2700000F086FA00280DD008280BD0A0F5405118
:10C28000043907D043F20141884203D0BDE8104091
:10C29000FFF72EBD10BD0000442500200C1F00201C
:10C2A000F0B50C4693B01F210726ADF80010ADF88D
:10C2B0000410002750B1C17849070DD56A4602A97C
:10C2C000FFF78DFB002808D102AD02E00025ADF894
:10C2D00000706CB1E07810B1304613B0F0BD01AA27
:10C2E0000AA92046FFF77BFB0028F6D10AAA02E044
:10C2F0000022ADF80470BDF80400C3B2BDF8000020
:10C30000C1B2284672DFE8E7FFF7F2BC70B50D4610
:10C3100004991646040040D0F6B341480022427109
:10C32000C0E90331242231463E48FFF7C1F800F04E
:10C33000EDF83C493431A1F11000016020318160F9
:10C3400038215C38FFF7CDF836482178383801704D
:10C35000A1788170E178C17061784170D4E90412EC
:10C36000C0E90412D4E90212C0E90212D4E90612AB
:10C37000C0E90612616AD1B100F1AC0100F1B80266
:10C3800041628A60636A1B880B80616A436A89889C
:10C3900099800021436A07E0FFE70E2070BD666ABE
:10C3A000B668765C5654491C9E888E42F7D8A16ABE
:10C3B000D9B11C4AAC32A2F10C018A608162A36A35
:10C3C0009B888B80A16A836A098819800021836A0F
:10C3D00004E0A66AB668765C5654491C9E888E4274
:10C3E000F7D894F82C1080F82C10216A49B10C4928
:10C3F00014310162226A52884A80216A026A0988DD
:10C400001180616821B10649891D41606168416000
:10C410002946BDE8704003483838FFF741BF0000A7
:10C42000BC1F0020F825002010B502881D4C102AE2
:10C4300018D00021112A1BD0192A18D18079002880
:10C4400015D16079012820D0022824D0032824D0D7
:10C4500004280CD12171E2680846002A07D0BDE803
:10C4600010401047017D012901D18088208110BD35
:10C470006170808821898842F9D1012006E0216914
:10C480000029F4D0BDE810400847022000F062F80F
:10C490000028F4D110BD0320F8E703202071042008
:10C4A000F4E70000BC1F002010B5022801D00328CB
:10C4B00010D1094C207800280CD000202070607921
:10C4C00000F048F8002805D02169002902D0BDE815
:10C4D0001040084710BD0000BC1F002030B50A4BBB
:10C4E000D97871B103F11802017811700021441854
:10C4F00055186478491C6C700629F8DB0020D87048
:10C5000030BD082030BD0000BC1F002002480021C3
:10C510008161818381777047BC1F00200B4810B573
:10C520000078012810D10A4C607868B9607910B1A0
:10C5300074DF002809D101206070607900F00AF8EA
:10C5400010B1216901B18847002010BDF8250020F5
:10C55000BC1F00202DE9F04F724C87B0002660719F
:10C5600006A8069603F01EFB0127082805D0002820
:10C5700071D1069810B12770C0E00696FFF7C6FF8C
:10C58000694D687810B16079012804D0A87848B165
:10C590006079022806D1E16819B1E7700820884760
:10C5A00000E0E6706079DFF87C814FF0020A08F164
:10C5B00018084FF0030B012806D1687840B108F144
:10C5C000010003F04EFA18B16079022802D00AE0A7
:10C5D00084F805A0A87820B108F1010003F041FA21
:10C5E00008B984F805B0287B4FF0040920B96079B8
:10C5F000032801D184F80590287E20B960790428A9
:10C6000001D166712671E16841B16079032801D0DA
:10C61000042803D1287808B16078C0B1A670182129
:10C620006846FEF75EFF8DF8006001968DF80860A1
:10C630000396607901280FD0022817D03A4E24368D
:10C64000A6F15C0703281ED004284DD13BE0A7705B
:10C6500007208847E3E752E0ADF81260CDF8048088
:10C660008DF80070ADF8106027713FE0CDF80480C0
:10C670008DF800702889ADF81200A888ADF8100078
:10C6800084F804A032E0A88AADF81200288AADF838
:10C6900010002548243004F018FB18B1287808B1A0
:10C6A000607810B184F804B01EE01F488DF808A02F
:10C6B000039687F8039000213838FFF7F1FD002832
:10C6C0001DD105202BE0A88BADF81000288CADF80B
:10C6D00012001548243004F0F8FA18B1287808B18F
:10C6E000607878B184F80490607918B1684673DF97
:10C6F000002804D1E16809B120798847002007B0FB
:10C70000BDE8F08F08488DF808A0039687F80390DD
:10C7100000213838FFF7C4FD0028F0D10620207131
:10C72000E2E70000BC1F0020F825002070B5124B86
:10C73000997841B111490279104D0A71047B0C734B
:10C740000021303507E0082070BD866856F821606A
:10C7500045F82160491C8C42F7D8084C0021103460
:10C7600005E0056855F8215044F82150491C8A42DB
:10C77000F7D80020987070BDBC1F00201C26002038
:10C7800073B586B0040034D0217C9DF81C200020B5
:10C7900091422CD0002501260095ADF8006007A835
:10C7A000ADF802500190E188608A6A46A4DF002853
:10C7B0001DD19DF81C002074608AA0F57F41FF39CF
:10C7C00019D0207DB8B10295039504950595E088B0
:10C7D000ADF80800BDF80200ADF80C0001988DF826
:10C7E0000A60CDF810D00590608A02A9A6DF08B0D3
:10C7F00070BD0E20FBE70820F9E738B50D460400B0
:10C800001BD0D5B1286820604FF6FF706082287970
:10C810002075FF20207401208DF8020041F60F00E2
:10C82000ADF80000221D69460120A0DF002803D1D9
:10C8300029462046FFF76CFC38BD0E2038BD08B5F0
:10C84000002821D000291FD00A88102A17D0112AC9
:10C8500017D0502A18D1027D002A15D031F8062FA2
:10C8600043899A4210D10A8B022A0DD10268002A0C
:10C870000AD0897E11F0010F07D0002106E08988D7
:10C8800001E04FF6FF71418208BD01218DF80010D3
:10C890006946904708BD000070B5054601461C2258
:10C8A0000F48FEF705FE0F4C00262670286830B1B1
:10C8B000016861604068A060201D7ADF02E00948DD
:10C8C000001D7BDF00280AD14FF6FF706080667084
:10C8D000BDE87040044A00210448FFF7FFBA70BD6C
:10C8E000E4260020DC1F0020310B02003C0D02007A
:10C8F00070B5204C068800251D49E289102E15D000
:10C900001D4B112E1ED0122E2BD0502E19D130F8C7
:10C91000061F914215D1018B022912D1807E10F0A1
:10C92000010F13D0BDE8704001F088B883884B80B8
:10C93000D0F81630CB60D0F81A0008614D70002A8C
:10C94000F0D070BD4FF6FF7048804D701868FFF74B
:10C9500077FB0028F5D0A1690029F2D0BDE870402E
:10C96000084750F8062FCA6040680861DAE70000FF
:10C97000DC1F0020E42600203C0D02007CB50546AB
:10C9800008880C460930904201D90C207CBD6846CD
:10C9900071DF0028FAD121880820685420881B21E3
:10C9A000401C80B2208029542088401C80B2208006
:10C9B0002844DDF801100160BDF805108180208851
:10C9C000801D80B220809DF8001001B10121295402
:10C9D0002088401C208000207CBD00007FB50446DC
:10C9E00001208DF8060041F60A00ADF80400454A22
:10C9F00001A90120A0DF00287ED1228804F13C0596
:10CA000052B140482B46801C009042F629206168B4
:10CA100000F026FE002873D1228952B139482B46F6
:10CA20000A30009042F62420E16800F019FE002848
:10CA300066D1228A52B133482B461230009042F61A
:10CA40002520616900F00CFE002859D1228B52B1DB
:10CA50002C482B461A30009042F62720E16900F05E
:10CA6000FFFD00284CD1228C52B126482B462230A3
:10CA7000009042F62620616A00F0F2FD00283FD1C6
:10CA8000228D52B11F482B462A30009042F62820B2
:10CA9000E16A00F0E5FD002832D1216B71B102A8F6
:10CAA00003F051FE17482B4632300090082202A9AD
:10CAB00042F6232000F0D4FD002821D1606B58B14C
:10CAC00010492B463A3100910279016842F62A203A
:10CAD00000F0C6FD002813D1A16B81B102A803F0BC
:10CAE00001F808482B4642300090072202A942F67E
:10CAF000502000F0B5FD00E002E0002800D1002049
:10CB000004B070BDF01F002010B5044601F082F99A
:10CB1000204600F0CBFA204602F04AFE2046FFF7FE
:10CB200083FC2046FFF7E4FE2146044800F031F97B
:10CB30002146BDE810400248FFF781BEB423002023
:10CB40002C250020F0B5054687B01646B5F876418D
:10CB5000DDE90C20A4F57F47FF3F2FD0D41CA7B2FE
:10CB6000ADF80070082F26D88DF814108DF81560D8
:10CB70008DF8163005AE1AB10146F01CFEF798FC90
:10CB800000200190029003900490B5F85E11ADF87A
:10CB9000041001218DF80610ADF808006846CDE9B3
:10CBA0000306B5F8760101A9A6DF002804D1BDF877
:10CBB0000010A14200D00C2007B0F0BD0820FBE718
:10CBC000F0B50546887A85B00C460A2805D8207C41
:10CBD0000A2802D8207E0A2802D9072005B0F0BD15
:10CBE0002068286060686860A07AA874207C85F856
:10CBF0007800207E85F8DE004FF6FF70A5F87601FC
:10CC000001208DF80E0041F61200ADF80C0005F180
:10CC1000080203A90120A0DF0028DFD1002609E0D7
:10CC2000A06B6A4630F816102889A1DF0028D5D1FC
:10CC3000761CF6B294F83600B042F1D8207A00277C
:10CC400008B9607A30B104F13C01284602F064FF73
:10CC50000028C3D12146284602F0CAF80028BDD1D9
:10CC60002146284602F0CDFE0028B7D1207E30B301
:10CC7000E06920B300261FE0E069049700EBC603DB
:10CC80009DF8100006EB860140F00A008DF81000B8
:10CC900005EB4100D979E03001F00102191D009146
:10CCA000CDE9012033F8022B04A9284603F082F9CC
:10CCB000002893D1761CF6B2207EB042DCD8214603
:10CCC000284603F010FA002888D1207A90B105F5A3
:10CCD000A770009004F14303082242F6222128465F
:10CCE00000F012F9002898D12146284600F074F986
:10CCF000002892D1607A60B105F5AF70009004F120
:10CD00004003082242F63321284600F0FDF80028AF
:10CD10008DD12146284601F008FF002887D104F173
:10CD20003E01284601F0BCFE58E730B51446827C2F
:10CD300085B08A422BD901EB8101B0F8762100EB56
:10CD400041011431A2F57F45FF3D1ED00022ADF810
:10CD5000004001920292039204920988ADF80410F7
:10CD600001218DF80610ADF808206946CDE90313BE
:10CD7000B0F8760101A9A6DF002804D1BDF80010A3
:10CD8000A14200D00C2005B030BD0820FBE70720F1
:10CD9000F9E730B50446088887B0102820D011285C
:10CDA0003BD050283ED0512818D10D4611F8060F1F
:10CDB000012813D1498801AA204603F033FA00283C
:10CDC0000CD021682046002908D007218DF80810D2
:10CDD000019906950391026802A9904707B030BDFA
:10CDE0008888A4F8760160890028F7D00120002106
:10CDF0000091ADF800008DF8080002A8ADF802100F
:10CE000001906189B4F876016A46A4DF0028E5D074
:10CE100061680029E2D08847E0E74FF6FF70A4F888
:10CE20007601DBE707B02046BDE8304002F06CBD7C
:10CE300070B504460D460846FEF75EFB208065602F
:10CE400070BD0A7802704978417002207047000076
:10CE500000B585B0154B48221549082003F058FB52
:10CE600008B1FEF745FF6A460121002003F02AFBC6
:10CE700008B1FEF73DFF0F4803F05CFA08B1FEF77A
:10CE800037FF684603F014FB08B1FEF731FF0A488C
:10CE900003F004FB08B1FEF72BFF084803F050FB3A
:10CEA000002801D0FEF724FF05B000BDFD040200FC
:10CEB000BC220020001E002009CB01003507020023
:10CEC0001CB5044681786A460C4802F07DFE0028B5
:10CED00013D160780A49C0EBC00001EB80001C232D
:10CEE0001A46694602F01AFF054806495830807A0A
:10CEF00051F820202146684690471CBD4C20002058
:10CF0000C4270020500D02002DE9F0438FB000240B
:10CF1000DDF85890804607949DF81C000F4620F0DD
:10CF20000F00401C20F0F00010308DF81C00187825
:10CF30008DF81D009DF81E001D4620F00600801C87
:10CF40008DF81E0016461C216846FEF7CAFA9DF8A9
:10CF5000000040F002008DF80000A978090702D017
:10CF600040F0080001E020F0080040F010008DF8CB
:10CF7000000007A8CDE904400120019403948DF836
:10CF80003A000694ADF838700D9468788DF8340046
:10CF9000A8788DF835009DF83600142120F00600A1
:10CFA000801C20F019008DF8360008A8FEF799FAC9
:10CFB0000EA808900DA8ADF828400990ADF82A40B9
:10CFC000ADF82C600C94B8F808004B4608AA6946E6
:10CFD000A2DF0FB0BDE8F083F0B58FB00E46054676
:10CFE0001C216846FEF77DFA00249DF8000003949A
:10CFF00040F00E008DF80000012701948DF8367086
:10D0000042F63220049405940694ADF834000C9452
:10D0100016F8460F8DF8300070788DF831009DF8C5
:10D020003200142120F00600801C20F019008DF839
:10D03000320007A8FEF755FA0DA807900CA8ADF826
:10D0400024400890ADF82640ADF828700B9428894C
:10D0500005F5AB7307AA6946A2DF0FB0F0BD00006B
:10D060007CB5114E0C004FF00005306015D06946BC
:10D07000002000F0B1F8002815D101A9012000F02E
:10D08000ABF800280FD19DF8041009B1022003E08D
:10D090009DF8001001B10B202070706810B9FEF7E8
:10D0A0009FFD054628467CBDB41F002010B51A4CD4
:10D0B0000188606810290ED011292BD1401E6060B4
:10D0C00028D1FEF78DFD002824D02168002921D029
:10D0D000BDE810400847D0B900210122084600F001
:10D0E000D1F808B107280FD107220221012000F052
:10D0F000C9F808B1072807D104220221002000F056
:10D10000C1F820B1072802D0216801B188476068C2
:10D11000401C606010BD0000B41F002010B503204B
:10D1200000F042FA08B1062800D1002010BD00002E
:10D130002DE9F04707460024244802E0641C042C33
:10D1400041D250F82420BA42F8D1042C3BD21F48D7
:10D15000DFF87C901F4E0C38A9F1140841B3012967
:10D160000FD002292FD104EB440030444578002D24
:10D1700029D0D8F81010002925D02846BDE8F0475E
:10D18000084704EB4401755C0E44717861B1D8F82E
:10D1900004100F4A01EB81014900133A8068FEF741
:10D1A0000FFF08B988F80170B17809F80410DEE7BC
:10D1B0008068FEF745FF04EB4401314419F8040090
:10D1C0008D78A842D3D0BDE8F08700000C0D020096
:10D1D000B01F00209425002004280CD2074A1268B2
:10D1E000074B13F8203001209840904300D00120D5
:10D1F0000870002070470020FAE70000100500507A
:10D200000C0D0200011F10B51D4A4FF6FF736FF0A1
:10D2100004000D291AD2DFE801F00B1919151919AC
:10D220000719191A1F242A00BDE8104003F004B999
:10D230001321508876DF07E0002807D0BDE81040B2
:10D24000FEF756BDFFF76AF90828F5D110BD5188E1
:10D250009942FBD000210FE051889942F6D0014657
:10D2600009E050889842F1D00021052004E0508860
:10D270009842EBD005210020BDE8104002F056B8DE
:10D28000001F002070B50023042810D20D4D00EBC4
:10D290004004012A02D101290CD00022094E00EBE2
:10D2A0004000304461B1012906D0022906D007238D
:10D2B000184670BD0D30C2B22A55F9E74270F7E743
:10D2C0008270F5E794250020044A01460020127A76
:10D2D000D20702D0084600F055B870479C1F0020C6
:10D2E00070B50E462149054600200A61C1E9016575
:10D2F000A9071BD50024012211462046FFF7C2FFD3
:10D30000641C042C02D20028F5D00FE070B972081A
:10D3100004211748FEF7A2FC40B9FEF78DFC28B99E
:10D320001348144A00211438FEF7D8FDE9070AD043
:10D33000114A4FF4F01111600F4B00221B1D1A60AF
:10D340000D4A1032116000280FD109480B4A002104
:10D350001C38FEF7C3FD002807D1BDE87040044823
:10D360000121074A1838FEF7B9BD70BD9C1F002087
:10D370001C0D0200E5D501000805005099EF0100E1
:10D3800019BC01002DE9F84F854EDFF810A24FF4CB
:10D39000E01CF16807462CEA010C0091002071683E
:10D3A0000AF10404251D7F4B4FF400324FF4802B0B
:10D3B00001EB810E8146182F16D2DFE807F00C171B
:10D3C000173A4E607083868F868FEAA0A0A0A0A037
:10D3D000CAD1D8E1EAEA009A4FF4F01191432160F2
:10D3E000C5F8009086F80090BDE8F88FC4F800C03A
:10D3F0004846C5F80090DAF800C08CF4F01C5FEAEB
:10D400008C3C09D522602860022F02D14FF4E160E4
:10D4100008E04FF47A6005E02A602060022F3CD0DB
:10D420004FF4C8706422B0FBF2F041433770002221
:10D430005EE0C4F800C04846C5F80090DAF800C0C5
:10D440008CF4F01C5FEA8C3C04D5226028604FF419
:10D450004870E7E72A6020601FE0C4F800C0484633
:10D46000C5F80090DAF800C08CF4F01C5FEA8C3C40
:10D4700002D522602860CCE72A602060D0E7C4F89B
:10D4800000C04846C5F80090DAF800C08CF4F01CE3
:10D490005FEA8C3CDED522602860C820C2E7C4F871
:10D4A00000C04846C5F80090DAF800C08CF4F01CC3
:10D4B0005FEA8C3C02D52260286001E02A6020608F
:10D4C000377014E0C4F800C04DE0DAF800002BEA31
:10D4D0000002226000F48020286008E0DAF80000F2
:10D4E0002BEA0001216000F48020286071460022B0
:10D4F0001868BDE8F84FFEF763BD21602EE098463E
:10D500005868FEF79DFDD7F1110100D040B1F168D8
:10D5100001F4F0112160C5F80090C6F80C9063E7A3
:10D520004FF40022F26001290CD9C82011FB00F150
:10D530006420B1FBF0F1706800224143D8F8040088
:10D54000FEF73EFDF16801F4F0112960C4F8009087
:10D550004AE74FF4F0112160C5F80090377043E7B7
:10D560004FF4E01121604946C5F8009006E04FF401
:10D57000D01121604946C5F800905A462A60BCE7A0
:10D580004FF4C01121604946C5F800904FF4C02205
:10D59000F4E74FF4F01129604946AEE70405005066
:10D5A0009C1F0020000D020070B500210C4D0124CD
:10D5B00055F82120920002F1A042D2F8006704FA47
:10D5C00001F3034000D0032326F4403646EA034328
:10D5D000C2F80037491C0429EAD3002070BD0000BE
:10D5E0000C0D020000780221FFF7A2BD05494FF0A3
:10D5F000FF32082841F8202002D3084480F8482050
:10D600007047000040280020F0B54FF0FF3512B100
:10D610000023082601E008230C260C4C05E000BF7F
:10D6200054F823707F1C04D05B1CB342F8D3284607
:10D63000F0BD26185DB286F8305044F82310002A59
:10D64000F5D1E11881F84800F1E7000040280020FA
:10D650000249084490F9300070470000402800203B
:10D660002DE9F0438FB01E46DDF8589015460F00A7
:10D67000804602D10020FEF73BFB15B90020FEF7E3
:10D6800037FB1C216846FDF72CFF00249DF80000A5
:10D69000039440F002008DF80000012001948DF801
:10D6A0003600049405940694ADF834800C943078D8
:10D6B0008DF8300070788DF831009DF8320014211B
:10D6C00020F00600801C20F019008DF8320007A819
:10D6D000FDF707FF0DA807900CA808900748ADF8C4
:10D6E0002450ADF82640ADF828500B974B4607AABA
:10D6F00069460088A2DF0FB0BDE8F083F01F00206C
:10D700002DE9F0413B48017801EB810100EB8104F8
:10D71000D4E9030600EB40013648241DCC3000EB71
:10D720008100B0F808804589476802F0CCFAB6FB62
:10D73000F0F100FB116088B35FF0000008FB057793
:10D740006188A288DFF8B08011448D190022C8F8E2
:10D75000102040B102F0B7FA6188884221D0BD4262
:10D7600001D1A088E8B1A06802281AD002F0ABFA73
:10D77000A18844463144B1FBF0F200FB121080084E
:10D78000C8F80C0002F09FFAB5FBF0F100FB115055
:10D7900078B10020BD4228D068B126E0FFE7012023
:10D7A000CCE702F090FAB6FBF0F10320C8F81410B1
:10D7B0001CE00120EEE7ADB2BEB202F084FAB6FB87
:10D7C000F0F702F080FAB5FBF0F0874201D1701B50
:10D7D00009E002F078FA064602F075FAB5FBF0F1BE
:10D7E00000FB1150301A800820610220BDE8F04192
:10D7F00002F036BEB82800205420002006480178E8
:10D8000001EB810100EB81000079042801D000F0D8
:10D8100059B8012002F024BEB82800200A480B4A5B
:10D82000017801EB810100EB8100C1881162007970
:10D83000012805D0032801D0042804D1FFF760BFD8
:10D84000012002F00DBE7047B828002054200020AF
:10D8500000EB80020548002100EB820001220171EB
:10D86000C180C0E90321416101817047B8280020CF
:10D870002DE9F041114D069E6C780A2C1BD02F78B3
:10D880003C440A2C00D30A3C04EB840405EB8404DA
:10D8900020716261D1E90001C4E90301E3802681BE
:10D8A0006878401C68700648007808B9FFF7B6FF32
:10D8B0000020BDE8F0810420FBE70000B82800202C
:10D8C0005420002010B50E4C207800EB800004EBB3
:10D8D00080010020091DFEF71BFA2078FFF7B8FF32
:10D8E0006078401E60702078401CC0B220700A280A
:10D8F00001D100202070BDE81040002002F0B0BD32
:10D90000B82800202DE9F05F2648C168F1B3DFF8A0
:10D9100098B00E688146DBF800400769C078E11BCB
:10D9200021F07F45ED1CB0B9DFF880804FF48030E6
:10D93000C8F84403C8F804031120FDF7B1FE112014
:10D94000FDF7B9FE4FF0010AC8F800A02F20FDF73F
:10D9500061FD89F803A0B54200D23546124BE819A3
:10D960003C3320F07F401860DBF800105A46091B5A
:10D9700021F07F41001B20F07F40C91C81420FD95C
:10D98000106818602F20FDF745FD00E004E0BDE8B9
:10D99000F05F1120FDF79ABEBDE8F05F02F084BC95
:10D9A000BDE8F09F9C2000200415014000100140BC
:10D9B0002DE9F04117880646B81D14460D469842D9
:10D9C00002D90C20BDE8F0813188072206290AD34C
:10D9D0004FF4486C4FF6FF73614501D9994202D16B
:10D9E0007088062801D21046ECE7604501D99842BC
:10D9F000F9D1994203D0984201D08142F3D8052051
:10DA0000E85520881221401C80B2208029542088AB
:10DA1000401C80B220804119308803F079F82188B9
:10DA2000084480B220804119708803F071F8218881
:10DA3000084420800020C5E7FEF75AB9F8B513481E
:10DA400001F04AFA114D0026114C0C3D30B16169CC
:10DA5000B9B101208DF80000684611E0287820B1A6
:10DA6000616971B18DF80060F6E7687858B1A16816
:10DA7000084800220068FEF7A3FA10B1A16901B1BD
:10DA800088472E70F8BD6168F2E70000E81F0020AB
:10DA9000E42600203C0D020070B5094B0446082026
:10DAA0009E7A00250E4208D0A4F57F40FF3802D0B0
:10DAB0001889A04202D10020156070BD052070BDFC
:10DAC0001028002000EB40020748012100EB8200F3
:10DAD00081724FF6FF710181FF21C1720021016047
:10DAE00081808171704700001028002010B5134C10
:10DAF000207900071ED46069401C6061E06808B1AD
:10DB000004200AE001F0F6F908B1022005E02069DE
:10DB100060B16068C10704D00320BDE8104002F086
:10DB2000FFBD40F0010060600020F6E7BDE8104056
:10DB3000FFF764BEBDE8104002F0E8BD54200020AD
:10DB400006494868020707D4820702D540F0010061
:10DB50004860022002F0E4BD02F0D8BD542000204D
:10DB60002DE9F04100260125144C22E0606822696D
:10DB700000EBC607387805FA00F1114217D08A4346
:10DB8000226101F033FD02463878E36805FA00F1BE
:10DB9000194002FA00F3994209D17978012901D09C
:10DBA000012100E0002151407A6802B19047761CC3
:10DBB000F6B220788642D9D3BDE8F08178200020E3
:10DBC0002DE9FC410E46044681786A46254801F05D
:10DBD000FBFF002828D16078234F00EB400007EBC3
:10DBE0008000807A400621D4022E1FD0012E1FD043
:10DBF0001E4DA0781E49C0EBC00001EB8001002340
:10DC00001C226846A847A8B1022E0DD020781649DC
:10DC100000EB40000C3101EB80001649807A51F88E
:10DC20002020214668469047BDE8FC81124DE0E780
:10DC3000124DDEE7022EF7D0607800EB400007EBD4
:10DC40008000817A21F040018172074960784C3967
:10DC5000C0EBC00001EB80011C231A466846A847B0
:10DC6000D4E700004C200020102800209506020078
:10DC700000270020400D020035FF01006DFE01006D
:10DC80002DE9F04705250F4F9046894606460024AA
:10DC9000C4EBC40007EB800036B1072231461030D8
:10DCA000FDF731FC18B106E0018B414503D1002599
:10DCB000C9F8004002E0641C072CE9D32846BDE8FF
:10DCC000F0870000002700207CB5054681B26A4637
:10DCD000074801F079FF040008D16C21684601F083
:10DCE00099FF040002D1284601F0C6FE20467CBD03
:10DCF0004C20002070B505460C46100001D0FDF701
:10DD0000F7FF2078142801D0212802D10248296881
:10DD10008160002070BD0000001F00201FB58DF83D
:10DD20000C001B4800F09EFA08B1FDF7E1FF01F07E
:10DD3000CFFF08B1FDF7DCFF03A800F09FFA08B1A0
:10DD4000FDF7D6FF0020CDF805008DF809009DF8FD
:10DD50000500694620F01E0040F001000C3020F064
:10DD600020008DF8050007208DF8060010208DF8A2
:10DD700007000848009001208DF804000448C01FE7
:10DD800000F0CEFB002801D0FDF7B2FF1FBD000060
:10DD9000081F0020F5DC010000B593B002208DF8CB
:10DDA000400041F61510ADF842004EF6EE60ADF8B9
:10DDB00044000120ADF8460040216846FDF791FB84
:10DDC0000FA16846FFF734F810A80E909DF83C00AC
:10DDD00020F00F00401C20F0F00020308DF83C00B7
:10DDE0009DF83D0020F0FF008DF83D006846FEF7ED
:10DDF000F5FD002801D0FDF77BFF13B000BD00004A
:10DE00004E6F7264696353656D69636F6E647563A9
:10DE1000746F72002DE9F04F054693B0F848FF2467
:10DE20000E9400784FF0000A002858D0DFF8D48311
:10DE3000D8F80000002852D001A800F013FA08B169
:10DE4000FDF756FF281D05902A20ADF81800002781
:10DE5000FF208DF806008DF804700097E94C2888A3
:10DE60000C3CBB4610280FD0A8886A460221FFF759
:10DE700013FE48B9009800EB400104EB8101C97A18
:10DE80008DF806108DF80500DFF878932888A9F141
:10DE90005809132309F11C02A2F1E006172875D0D6
:10DEA00010DC10281ED011285ED013286FD0142843
:10DEB00015D1009800EB400004EB8000C07AFF28E9
:10DEC0007DD09AE0D049182877D01C2876D05228E7
:10DED00005D198F80A0051F8201001A8884713B01E
:10DEE000BDE8F08F4FF6FF766A4601213046FFF716
:10DEF000D3FD0028F3D10098022200EB400104EB8F
:10DF000081018A7211228DF810208DF80500A888F1
:10DF10000881D5F80600086068898880287B8871A8
:10DF2000687DC10708D0B649083101EB5000007880
:10DF3000FF2808D00E9006E032460EA9A81DFFF774
:10DF40009FFE00280FD100990E9801EB410104EBD0
:10DF50008101C8728A7A42F008028A728DF806003E
:10DF600001A8FEF7ADFF67E1009800EB400004EB6D
:10DF70008001887A20F002008872010708D5000627
:10DF80000FD5002101A8FFF71BFE0AE0B6E043E031
:10DF90009DF80600FF2804D001F06EFDFF208DF8EB
:10DFA00006000099102001EB410104EB8101887209
:10DFB00012208DF810003FE101E0F7E03AE1EA8934
:10DFC0000EA90020FFF75CFE78B900990E9801EBCE
:10DFD000410104EB8101C8728A7A42F008028A7218
:10DFE0008DF8060001A8FEF76BFF009800EB4000DB
:10DFF00004EB8000C07AFF2804D00098C0EBC00179
:10E0000009EB810A00980023C0EBC00006EB8002F8
:10E01000A888514682DF62E700988DF8103000EB47
:10E02000400004EB80018B7A43F004038B72CB7ABF
:10E03000FF2B30D016218DF8101002EB0010262196
:10E040000830FDF74EFA009800EB400004EB80002A
:10E05000817A41F0400181720099CDF82CB001EB3A
:10E06000410204EB820208ABD27ACDF828B0C2EBB1
:10E07000C20206EB8202CDE90C2BC1EBC10209EB17
:10E080008201CDE9081BA88808F1040200217FDF86
:10E090000028C0D1D0E00DF1380C48F24302002036
:10E0A000C0EBC00306EB83039B7EFF2B04D0401C18
:10E0B0000728F5D31746CFE70A78022A0CD0C0EB21
:10E0C000C00206EB8202FD2393760B6813618B88F6
:10E0D00093828979917505E0C0EBC00106EB81015F
:10E0E000FE228A768CF8000000990E9801EB41011F
:10E0F00004EB81018DF80600C872ADE798F80910AD
:10E1000021F0010188F80910DDF800C00CEB4C0388
:10E1100004EB8300817A21F00402827214218DF8CD
:10E120001010A97921B1C07AFFF7CEFDAF7983E055
:10E13000E979490739D59DF80610FF297CD042F0CE
:10E1400008028272EA7A920707D5C1EBC10206EB98
:10E150008202957E25F001059576C27AFF2A6BD062
:10E1600014F82320022A0ED0C1EBC10106EB810175
:10E1700002680A6182888A8280798875887E20F0A8
:10E18000020088760DE0CCEBCC0209EB8200428ADB
:10E19000C1EBC10006EB80000283817E21F001010A
:10E1A0008176012101A8FFF70BFD45E0A879012345
:10E1B000B3EB101F2AD100F00F00012826D10098E0
:10E1C00000EB400004EB80039B7A1B071ED502EB9B
:10E1D000001026210830FDF784F916208DF8100074
:10E1E000009800EB400004EB8000817A41F0600170
:10E1F000817298F8091041F0020188F8091017E0BF
:10E200003C2000201C280020600D0200009800EB3C
:10E21000400004EB8000827A42F080028272152076
:10E220008DF8100098F80A0051F8201001A88847CE
:10E23000002701E08DF810303A4604A901A8FDF747
:10E2400061FD9DF8100012287FF4E5AE009800EB08
:10E25000400104EB8101897A01293FF4DCAEFFF72C
:10E2600031FC3CE630B1FF21017041708170C1701A
:10E270000020704748F20E00704700002DE9FF4172
:10E2800005003AD02B480024046044728472204672
:10E29000FFF718FC274830213C38FDF722F900260B
:10E2A000DFF89480FF27304601F0E6FB08F806709F
:10E2B000761C072EF7D36C20ADF804000720ADF8CC
:10E2C00006001E481C4900900831684601F074FDA4
:10E2D00000280FD1184E0120083E3070287878B100
:10E2E000BDF80400BDF80610484381B206F11000E5
:10E2F00001F090FC04B0BDE8F08148F20E00F9E7AF
:10E300000F4F00250C48A9B202AA083001F05CFCAE
:10E3100048B9C5EBC50007EB800000231C2202A909
:10E3200001F0FCFC08B13470E4E76D1C072DE9D363
:10E33000E0E700001C28002044200020C1E3010089
:10E34000002700201B4A137848F20802F3B1931DFE
:10E3500018B111B10378CBB901E018467047164BDC
:10E360001B689BB1837848F20502FF2B10D013483D
:10E37000C3EBC30300EB8300837E9B0706D40269D3
:10E380000A60828A8A80807D8871002210467047E8
:10E390004078FF28FAD000EB400307480C3800EB28
:10E3A0008300837A9B07F1D502680A6082888A809D
:10E3B0008079E9E73C2000201C280020002700206D
:10E3C0002DE9F0478046534890B01E460068189FDC
:10E3D00092468946002850D06C2F4ED86846FFF7E9
:10E3E00041FF08B1FDF784FC00248DF800408DF852
:10E3F0000440CDE905762546A9B20DAA464801F0AC
:10E40000E3FB28B908220DA94046FDF77CF8E8B1E6
:10E410006D1C072DF0D300BF9DF80200FF282CD003
:10E42000202540220DF11008B9F1030F11D03B4B0C
:10E430004FF01C0CF11AB1FBFCF70121072F2AD277
:10E44000CDF80880BAF1000F1AD01FE08DF8025005
:10E45000E2E76C2F02D08DF8042001E08DF8045023
:10E460009DF8040040F003008DF80400524601A915
:10E470006846CDF80880FDF745FC10B0BDE8F08790
:10E48000254A8140103A52681142F6D002F046FB0C
:10E490008DF8045033E01F485838371AB7FBFCF7A3
:10E4A00047B11C30331A3025B3FBF5F3CBB18DF8EF
:10E4B0000420E2E717498DF804508DF801400C3133
:10E4C000CDE90A41CDF8088007909DF80200C0EB25
:10E4D000C00003EB8000089007A806901820059064
:10E4E0000DE08DF801408DF803100A498DF80450B5
:10E4F0000C39897A890702D43021FCF7F2FF9DF8A4
:10E500000400B9F1020F02D040F00200ACE740F085
:10E510000100A9E71C2800204C2000200027002033
:10E52000174A10B512785AB148F20E0258B151B1DB
:10E530000B6843B1134A14683CB148F2040010BDA3
:10E5400048F2080010BD104610BD0E4C13601C3C74
:10E55000D1F8053023624B7A84F82430097991721E
:10E5600023F0050141F002011172D17921F004017B
:10E5700041F00301D17100210170084610BD000077
:10E580003C2000201C2800207CB5044621480D4674
:10E59000017848F20800002928D0811D2CB325B34A
:10E5A0002178002922D11C49096800291ED06078F1
:10E5B00048F21001C8B918480C38807A012814D0E4
:10E5C000A078072811D2154AC0EBC00002EB8000EA
:10E5D000807EFF2809D0E96869B1AA685AB1262A65
:10E5E00009D22878012802D005E008467CBD0A48F7
:10E5F0003438FCF75DFF0748A1786A46103001F017
:10E60000E3FA2878064951F82020214668469047C9
:10E610007CBD00003C2000201C280020002700209A
:10E62000400D0200F0B5254A48F20803127832B3D3
:10E630009A1D38B131B10C6824B18C6814B10078DE
:10E64000E8B901E01046F0BD1D480068B8B10023EC
:10E650001B4C1A460C3C1846A4F58875E67A86428F
:10E6600002D1A67AB60722D40E7B964210D9C0EB0F
:10E67000C00605EB8606B77EFF0702D008E0184605
:10E68000F0BD8F6847F822600C4E0836B054521C1B
:10E690000E799E420BD9C0EBC00605EB8606B77E0D
:10E6A000BF0704D40F68103647F823605B1C401C7A
:10E6B0000728D3D30B710A730020F0BD3C20002043
:10E6C0001C2800200E4910B54A788C780023A242FD
:10E6D00012D0521CD2B24A70022A00D14B70084AA2
:10E6E0004B78183252F8232002600869104420F059
:10E6F0007F400861012010BD0360002010BD0000B4
:10E700009C200020002808D0112801D0FDF716BB5E
:10E710000248416841F008014160704754200020E0
:10E7200010B51F4C204621784068012910D00229DD
:10E730002DD0032932D1000725D46069401C6061C7
:10E7400000F0D8FBD8B12078BDE8104001F088BEB9
:10E75000000718D41348A28B017801EB810100EB6C
:10E760008100C188891A0904090CC18003D0BDE861
:10E77000104001F091BFBDE81040FFF7A3B8BDE81D
:10E780001040FFF73BB8BDE8104000F089BD0648D7
:10E79000617850F82100BDE81040004710BD00002E
:10E7A00054200020B8280020840D020028DFFFF745
:10E7B000A9BF29DFFFF7A6BF0EB517A19DF8080076
:10E7C00020F00F00401C20F0F00010308DF8080001
:10E7D000072202A87CDF08B1FDF78AFA40F2C230B6
:10E7E00078DF08B1FDF784FA002000900190062040
:10E7F000ADF800000C20ADF802001420ADF80400C4
:10E800004FF49670ADF8060068467ADF002801D014
:10E81000FDF76EFA0EBD0000424C455F48494400CA
:10E820000020704700207047002070472DE9F04716
:10E8300005464078002400EB40012448234F00EBBC
:10E84000011030374268A046264607EB810152B1DD
:10E850008B7A5FEA036C06D55B0604D4066800F188
:10E8600008041FFA82F80889334642462146A9DF88
:10E8700048F241090B281CD000B14846012E16D1A0
:10E8800068784FF6FF7200EB400007EB80000C2128
:10E890000089A7DF00280AD0A0F54051023913D023
:10E8A000082811D0891E0FD011280DD00020BDE8F6
:10E8B000F0876878012300EB400007EB80004246B8
:10E8C00000892146A9DFDBE74846F0E7E027002082
:10E8D00070B50C46014660780A4D00EB400005EB30
:10E8E00000103823302201F019FA002808D161788D
:10E8F00001EB410105EB01114A68521C00D14A604D
:10E9000070BD0000E02700202DE9F0418CB080466A
:10E9100003272620ADF828004878274E00EB40005A
:10E9200006EB80000C4600893B460AAA6946AADF2E
:10E9300008BB6078A6F1300500EB400005EB001045
:10E94000BDF8282069460830FCF7DDFD0028607816
:10E9500000EB400005D005EB0010416861B1174E97
:10E960000BE006EB8001897A890721D405EB0010C2
:10E970003021FCF7B6FD1BE0114E07606078BDF852
:10E98000282000EB400005EB0010694642606078EB
:10E9900000EB400005EB00100830FCF789FD6078C3
:10E9A000382300EB400005EB001130224046B04711
:10E9B0000CB00020BDE8F0811028002035FF0100D8
:10E9C0006DFE0100FFF732BFFFF782BFFFF79CBF6C
:10E9D0002DE9F041124E07460125BD403068FDF794
:10E9E0002FFB00280DD10F4C2069284207D1384653
:10E9F00000F0FCFD0028E06805D0284304E0A843AF
:10EA00002061BDE8F081A843E060206928432061CF
:10EA1000A1683068BDE8F0410022FDF7D1BA0000DE
:10EA2000980D02007820002070B51B4C207900075B
:10EA30002DD41A48017801EB810100EB81052E6984
:10EA400001F041F9E9882A89761E11443144B1FB6D
:10EA5000F0F02169002549B16169814206D1E56084
:10EA6000606840F001006060002008E000F042FAB9
:10EA700010B10220E56002E0206920B10320BDE86A
:10EA8000704001F04DBEBDE87040FEF7B7BEBDE876
:10EA9000704001F03BBE000054200020B828002048
:10EAA000F0B58FB00F4605461C216846FCF719FDEE
:10EAB00000249DF80000039440F004008DF800004D
:10EAC000012601948DF8366042F64C20049405949A
:10EAD0000694ADF834000C9438788DF830007878CE
:10EAE0008DF831009DF832008DF8384020F0060096
:10EAF000801C20F019008DF83200142107A8FCF7C3
:10EB0000F0FC0DA807900CA80890ADF824600EA8A2
:10EB1000ADF82640ADF828600B90288905F5B7734D
:10EB200007AA6946A2DF0FB0F0BD70B590B00D46E0
:10EB300006461C2105A8FCF7D4FC00249DF814000F
:10EB4000069440F002008DF814000A9401208DF81C
:10EB50003E00089442F64A2009940B94ADF83C001C
:10EB60000D9495F834008DF8340095F835008DF843
:10EB700035009DF83600142120F00600801C20F09E
:10EB800019008DF8360035F8300F8DF83800000A7E
:10EB90008DF83900A8788DF83A00E8788DF83B00B8
:10EBA00004256846FCF79DFC0FA800900DA8019075
:10EBB000ADF808500EA8ADF80A40ADF80C5004901E
:10EBC000308906F5B3736A4605A9A2DF10B070BD9F
:10EBD00030B599B018216846FCF783FC9DF8040015
:10EBE000032520F00F00401C20F0F00020308DF8AD
:10EBF00004009DF80500ADF8085020F00F00401CFF
:10EC000020F0F00020308DF805009DF8060001246A
:10EC100020F00F00401C20F0F00020308DF806009E
:10EC200002208DF80A009DF80C00ADF8005020F08D
:10EC30000F00401C20F0F00020308DF80C009DF8F3
:10EC40000D008DF8024020F00F00401C20F0F00075
:10EC500020308DF80D009DF80E008DF8034020F057
:10EC60000F00401C20F0F00020308DF80E009DF8C1
:10EC70001400ADF8104020F00F00401C20F0F00010
:10EC800020308DF814009DF815008DF8125020F0FA
:10EC90000F00401C20F0F00020308DF815009DF88A
:10ECA00016008DF80B4020F00F00401C20F0F00003
:10ECB00020308DF816008DF81340482106A8FCF787
:10ECC00010FC474806904748079000208DF8280020
:10ECD0008821ADF83C108DF82000CDF824D04249B1
:10ECE0008DF821400E918DF822500D9040F20111C7
:10ECF000ADF848100B908DF830008DF84A008DF873
:10ED00004E0014909DF844008DF84B5020F00F00F9
:10ED1000401C20F0F00020308DF844009DF84500A4
:10ED200020F0FF008DF845009DF84C0020F00F000A
:10ED3000401C20F0F00020308DF84C009DF84D0074
:10ED400020F0FF008DF84D009DF8580020F00F00D6
:10ED5000401C20F0F00020308DF858009DF859003C
:10ED600020F00F00401C20F0F00020308DF85900FA
:10ED70009DF85A0020F00F00401C20F0F0002030D9
:10ED80008DF85A009DF8540020F00F00401C20F030
:10ED9000F00020308DF854009DF8550020F00F0051
:10EDA000401C20F0F00020308DF855009DF85600F2
:10EDB00020F0FF008DF856009DF8570006A920F0BE
:10EDC0000F00401C20F0F00020308DF8570007485D
:10EDD000FDF7F6FE002801D0FCF78AFF19B030BD20
:10EDE00049F8010035040200141F0020B42300205C
:10EDF0007FB50646887A0D4698B3E86888B3002444
:10EE00002CE0E86800EBC403002003909DF80C00A0
:10EE100040F002008DF80C009979090702D040F00B
:10EE2000080001E020F0080040F010008DF80C0010
:10EE3000D97904EB840001F001011A1D06EB4000B2
:10EE4000CDE900211430029033F8022B03A930469B
:10EE500001F0B0F8002805D1641CE4B2A87AA04201
:10EE6000CFD8002004B070BDF8B51A4C2078002827
:10EE70002ED0206928B10026E06820B1002526B1F7
:10EE800010E00126F8E70125F9E7684652DF05287A
:10EE900003D020B1FCF72CFF04E0012602E0216939
:10EEA0000098884785B96088ADF800006946A06879
:10EEB00061DF052803D020B1FCF71AFF04E001252B
:10EEC00002E0D4E902018847002EDED0002DD6D022
:10EED000F8BD0000BC200020054940880A88904207
:10EEE00004D34988884201D8012070470020704728
:10EEF000E01F002070B50E48017801EB810100EBA6
:10EF00008104256900F0DFFEE18822896D1E11442D
:10EF10002944B1FBF0F1074842698A4205D301D187
:10EF2000006910B14FF0000070BD4FF0010070BDDE
:10EF3000B828002054200020800701D0002070470E
:10EF40000120704730B51488E51C9D4201D90C2082
:10EF500030BD02250D5513881C245B1C9BB2138009
:10EF6000CC5413885B1C9BB21380012807D0022865
:10EF700007D0032807D0042807D0072030BD002081
:10EF800004E0012002E0CD5401E00320C8541088C1
:10EF9000401C1080002030BD0348017AC90702D010
:10EFA0000078FEF7EFB970479C1F00202DE9F0476D
:10EFB000DFF8ACA0DAF80C009AF8004080469AF826
:10EFC0000460DAF80890DAF810703AE009EBC4054A
:10EFD0002A7833E002EB42016B68521C03EBC1015B
:10EFE000AB78D2B2934200D100220B78022B02D030
:10EFF000032B23D11FE0D1F804C00346014603E0F0
:10F00000614503D00B46C969C1B1F9E7B1B18B4283
:10F0100005D1C06918B9134F0126BE600027D1F889
:10F0200000C0C969D96149B10B6863440B6005E050
:10F030000174C06900E000210028F9D1697891428B
:10F04000C8D1641EE4B2C1D2CAE903078AF80460D9
:10F05000404502D00120BDE8F0870020FBE700001A
:10F060009C200020001001402DE9F04705462F4864
:10F07000002680460778D0F80C904BE0D8F80800BE
:10F0800000EBC70440E002D02846ED691EE020787E
:10F09000616800EB4002401CC0B201EBC20120706D
:10F0A000A278904200D126700A784868012A2DD1B2
:10F0B000027C5ABB8A684260CA6882600A69C26080
:10F0C0004969816198F8041001B146604268D8F836
:10F0D0001030DFF85CC0D11A21F07F41614502D2C7
:10F0E0008268114406E0991A826821F07F418A42C1
:10F0F00002D9511A016000E0066046600121866075
:10F100000174C66101F090FB002DBCD120786178BC
:10F110008842BCD17F1EFFB2B0D2D8F80C1049454E
:10F1200002D00120BDE8F0870020FBE79C200020F2
:10F13000FFFF7F0098B04F4B4F4A05210020FCF79E
:10F14000F7FE08B1FCF7D4FD4C4A01214C48FCF70E
:10F15000C5FE08B1FCF7CCFD4A4A40F6CD4103207C
:10F16000FEF7BEF808B1FCF7C3FD69460020FDF7C5
:10F1700077FF08B1FCF7BCFD9DF8000002286FD0B6
:10F180005FF00004FDF764FE3F4A0A210820FCF707
:10F190008FFE08B1FCF7ACFD2046FEF7BFFDFFF780
:10F1A0000BFB382101A8FCF79CF902218DF8041013
:10F1B000012405208DF806408DF8070033483049BA
:10F1C0000690ADF814402422091D0FA8FCF770F931
:10F1D0002F4800902F4B0FAA002101A8FDF796F8A9
:10F1E00008B1FCF785FDFEF7D7FDFCF751FFFFF7EF
:10F1F000EFFC2948512101606421C0E90114047326
:10F2000001462248083001F0B9F81C216846FCF795
:10F2100068F900204FF42031CDE900014FF470214E
:10F22000029103218DF80C10ADF80E008DF810003E
:10F2300005901A4806906846FDF72EFB08B1FCF7CA
:10F2400057FD0F4800224FF480310068FCF7B8FEEC
:10F2500008B1FCF74DFD0320FDF77CF905E0FFE761
:10F2600001248FE7FCF714FE48DF0028FAD0FCF7F2
:10F270003FFDF7E719BF0100F420002061C2010043
:10F28000D80C020005D2010004230020041F002036
:10F2900009C30100EDF601004425002039DA010020
:10F2A0000348416821F008014160007801F0D8B8B6
:10F2B00054200020002360F30F03184661F3174029
:10F2C00062F31F60704770B5144682880E4605468B
:10F2D0002088111D0144921C994201D8FE2A01D9AF
:10F2E0000C2070BD521C32542088FF21401C80B27B
:10F2F000208031542088401C80B2208081192888C9
:10F3000001F006FC2188084480B22080AA8842B11E
:10F31000A96841B13044FCF7CBF82088A98808449B
:10F320002080002070BD072070BD00001CB51E4A63
:10F3300012787AB1FF2800DBFF20FF2900DBFF21D4
:10F340000022009201924BB242B200211748FDF711
:10F35000F9FB18E040F6FF72904200DB1046914244
:10F3600000DB11468DF80000C0F3032040EA0110D5
:10F370008DF8010008098DF802006B460322012177
:10F380000A48FDF7D2FC00280DD008280BD0A0F5C4
:10F390004051043907D043F20141884203D0BDE80F
:10F3A0001C40FCF7A5BC1CBD001F0020B42300209E
:10F3B000F8B50E46017814460546012901D1687852
:10F3C00030B12088821C9A422DD8012902D006E053
:10F3D0000720F8BD69780144891C994223D8181A7E
:10F3E000801E87B2ADF800702188B01C08446946C1
:10F3F0007DDF0028EDD12878022805D1BDF8001066
:10F40000B94201D809210AE00821012805D168780C
:10F41000B84202D8ADF8000001E0ADF80070BDF8C8
:10F420000000FE2801D90C20F8BD2288401CB054F1
:10F430002088401C80B2208031542088401C2080CD
:10F44000BDF80010084420800020F8BD002070475F
:10F4500000207047002070474907090E002806DA8F
:10F4600000F00F0202F1E02282F8141D03E000F127
:10F47000E02282F8001400F01F02012191404009AF
:10F48000800000F1E020C0F88012C0F80011704741
:10F490002DE9F0478846814600F00CFB0124224EFE
:10F4A0000028484618D0FEF7D3F8304490F84800BA
:10F4B0008009032802D0012806D007E01B48006815
:10F4C00004FA09F4204201D1022100E00321484658
:10F4D000BDE8F04700F0D9B800F0F8FA002820D0D5
:10F4E0004846FEF7B5F80546114F4FF4807007EB1C
:10F4F000850100EB8500D1F8102580B242F00102B1
:10F50000C1F8102500F0D0F8B8F1000F09D0484636
:10F51000FEF79EF856F82000002802D0AC40C7F84D
:10F520000443BDE8F087000040280020100500508B
:10F53000006000402DE9FC41DFF8A480044608EBA0
:10F540000400002790F930001346C0170E46401CF7
:10F5500001D0082740E0F27819462046FEF754F81B
:10F560000546401C37D0B07848B1A00000F1A0405B
:10F57000D0F8001721F00201C0F8001707E00021C1
:10F580007378204600910A46019100F06DF8F078FA
:10F59000C0B11448317800EB8500D0F81025124B2B
:10F5A0001A40C0F810254FF4F8524FF4403302EAE5
:10F5B000042203EA01410A43D0F810150A43C0F8B7
:10F5C000102509E008EB0500327810F8481F41EAE1
:10F5D0008211017000E004273846BDE8FC8100007C
:10F5E0004028002000600040FFE0FCFF034909685C
:10F5F000C14011F0010000D00120704710050050FB
:10F6000070B5124D95F8540008B1082070BD002067
:10F61000411E2A18401CC0B282F830102028F8D3AE
:10F6200000242046FDF7E2FF641CE4B20C2CF8D362
:10F6300003210620FFF710FF05494FF00040C1F8F5
:10F640000403012085F85400002070BD40280020EC
:10F6500000600040034890F85400002800D00120CA
:10F66000704700004028002030B541EA4201DDE942
:10F67000034541EA8301800041EA042100F1A040F2
:10F6800041EA0541C0F8001730BD800000F5E06098
:10F6900000F1A040026822F440320260026842EAAF
:10F6A0000141016070470000034908B5084400218A
:10F6B00001600068009008BD0060004002494058A9
:10F6C000012800D00020704700600040405800280A
:10F6D00000D001207047D0F80403084000D001207A
:10F6E00070474058002800D00120704700B595B001
:10F6F000092841D2DFE800F01E0540071113152943
:10F700004200052000E00220FDF7DEFD002833D096
:10F7100015B05DF804EBFCF7EBBA0420F4E7032026
:10F72000F2E70320FDF7D0FD08B1FCF7E1FAFCF7A2
:10F73000F5FEEBE70020FDF7C7FD08B1FCF7D8FAAE
:10F7400015B05DF804EB00F077BE02208DF80400E0
:10F750008DF80C0004A800900CA80290694613488C
:10F76000FEF760FF08B1FCF7C3FA6846FCF7DEFF5E
:10F7700018E000BFFCF7BCFA15B000BD0B48C01D77
:10F780000078FF28F8D009486946C01DFEF7DAFD69
:10F79000A0F500410539EFD008B1FCF7A9FA684699
:10F7A000FCF79CFE0028E5D1E6E70000011F0020E1
:10F7B0007FB504460088234D3A2814D00FDC022878
:10F7C0001DD0102813D0112808D10020FDF77CFD92
:10F7D00008B1FCF78DFA4FF6FF7068807FBD5128A5
:10F7E00015D05528FAD11321688876DF25E0072047
:10F7F000FDF76AFD08B1FCF77BFAA088EDE7002170
:10F80000688867DF19E000BFFCF772FA7FBDA17955
:10F810000029FBD0A07A042803D0062801D00528AF
:10F82000F4D102290CD001208DF800004FF4C170F2
:10F83000ADF8040069466888A8DF0028E4D17FBDE0
:10F840000220F1E7001F00201FB50C7800200123E3
:10F85000144A022C07D0052C03D0062C00D11070BE
:10F860001FBD13701FBD8DF80030029003901078FB
:10F8700028B18888A0F52851333906D01FBDC87932
:10F880000128FBD188790128F8D10648694608305B
:10F89000FEF77AFE0828F1D00028EFD0FCF728FA0E
:10F8A0001FBD0000001F002000B5138B85B0022B88
:10F8B00010D10368002B0DD0927E12F0010F01D001
:10F8C000022200E003228DF80020096801910268FD
:10F8D0006946904705B000BD00B5036885B0002BB0
:10F8E0000FD004238DF80030126801928A8BADF896
:10F8F0000820CA8B2031ADF80A20039102686946BE
:10F90000904705B000BD0000F0B50E4604468D1DC1
:10F91000C988B0F86E010022012387B0814214D15A
:10F92000298B204601290BD10168002908D0A97E26
:10F9300041B1012904D18DF80430026801A9904732
:10F9400007B0F0BD8DF80420F7E76089814210D13F
:10F95000298B20460129F3D101680029F0D0A97E26
:10F9600029B10129ECD106218DF80410E5E7052124
:10F97000FAE7B4F8522142F62220914205D1002242
:10F980001146FFF797FC009025E0B4F84E21914214
:10F9900005D100221146FFF78DFC00902BE0B4F852
:10F9A000622142F633209142E9D0B4F85E219142BF
:10F9B000EFD06F460022A07C15E000BF02EB82036F
:10F9C00004EB43031B8B8B420BD1012142F64D20EC
:10F9D000FFF770FC38602A4669462046FFF764FF4F
:10F9E000AEE7521CD2B29042E8D83A46204600F028
:10F9F00019FC0028A4D06A4631462046FFF76CFF68
:10FA00009EE77FB50646087C0D4638B3686928B383
:10FA1000002420E0686900EBC403002003909DF8F7
:10FA20000C001A1D40F00E008DF80C00D97904EB83
:10FA3000840001F0010106EB4000CDE900217A309D
:10FA4000029033F8022B03A9304600F0B3FA0028E5
:10FA500005D1641CE4B2287CA042DBD8002004B0AD
:10FA600070BD0021425C0AB101207047491C062983
:10FA7000F8D300207047000070B50546C0EBC50103
:10FA80000B4800EB81040020C4F81100A4F8150015
:10FA900020461021FBF725FDFF202074A0764FF6AD
:10FAA000FF7020832846BDE8704001F037B80000A1
:10FAB000002700200449084490F93000082801DBA1
:10FAC0000120704700207047402800200449084466
:10FAD00090F93000082801D20120704700207047BB
:10FAE0004028002070B50D00044602D10020FCF72C
:10FAF000FFF814B90020FCF7FBF82878207069881B
:10FB00006170090AA170A988E170090A2171E88869
:10FB10006071000AA07170BDF0B58FB00F46064647
:10FB20001C216846FBF7DDFC00249DF800000394CF
:10FB300040F006008DF80000012501948DF8365044
:10FB400042F64E20049405940694ADF834000C94CB
:10FB500038788DF8300078788DF831009DF83200D3
:10FB6000142120F00600801C20F019008DF83200CE
:10FB700007A8FBF7B6FC0DA807900CA88DF8385025
:10FB80000890ADF824500EA8ADF82640ADF82850E6
:10FB90000B90308906F10A0307AA6946A2DF0FB06D
:10FBA000F0BD000006490979490701D408207047D3
:10FBB00020B1044949780160002070470E20704749
:10FBC00054200020B828002030B5104B1B795B076B
:10FBD00001D4082030BD18B112B104687CB901E02D
:10FBE0000E2030BD0A4B1D684DB140681D8901FBD8
:10FBF000050059685B8903FB0511814201D8072084
:10FC000030BDC2E90040002030BD0000542000207B
:10FC100084290020F8B5054621480E4600794007A2
:10FC200001D40820F8BD15B1286870BB01E00E2092
:10FC3000F8BD1C4C0027206838B3618922896068B0
:10FC400001FB0201686881421FD9FFF775F970B1A5
:10FC5000D5E9000200EB400004EB80004368018915
:10FC6000D41AB4FBF1FC01FB1C4474B901E0102070
:10FC7000F8BDB6FBF1F401FB146434B92EB1408930
:10FC8000324400FB0130824201D90720F8BD3346DF
:10FC90000022294603200097FDF7EAFDF8BD000089
:10FCA000542000208429002010B54FF01020446912
:10FCB000601C04D000F007F8B4FBF0F010BD4FF06A
:10FCC0008050406910BD4FF08050006980B270478D
:10FCD00070B5104800242546047044702846FDF78E
:10FCE000B7FD6D1C0A2DF9D30B4D6C80FFF7DCFFBF
:10FCF000861EFFF7E8FF46430648AE60CC306C61D5
:10FD00000460048144812C70AC610420EC61686063
:10FD1000002070BDB8280020542000202DE9F843B1
:10FD2000804623481F46164600790D46400702D4F8
:10FD30000820BDE8F8832DB1B8F1000F02D0286883
:10FD400098B901E00E20F4E71A4C206868B1628986
:10FD50002089616802FB00116A68914205D926B1C9
:10FD6000B04202D3F119814201D90720E1E74046B0
:10FD7000FFF7E2F8D0B13846FFF7DEF8B0B16868B7
:10FD8000FFF7DAF890B168683246C1194046FBF7D0
:10FD90008FFB00962868002200EB4000434654F891
:10FDA000204002212846A0470020C2E71020C0E7DB
:10FDB00054200020842900202DE9F041294D0446DB
:10FDC0000E462879400702D40820BDE8F081ECB146
:10FDD000E6B12068D0B1FFF776FF0146A0888142E6
:10FDE00012D3102810D3E08870B1FFF75DFF471ED3
:10FDF000FFF769FF4743E288A188A86802FB010278
:10FE0000974201D3890703D00720DEE70E20DCE705
:10FE10006988012924D0C6E90010134A01EB410387
:10FE200002EB83014860206842F82300A088088123
:10FE3000E0884881FFF747FFA188E288401E01FB68
:10FE40000204FFF740FF94FBF0F4FFF73CFFA968C2
:10FE500004FB0010A8606888401C68800020B4E79C
:10FE60000420B2E75420002084290020F8B504467D
:10FE70001C481E46154600790F46400701D408204D
:10FE8000F8BD1FB114B1206898B901E00E20F8BD8B
:10FE90001548016869B142894168008902FB001177
:10FEA0006268914205D925B1A84202D3A9198142BD
:10FEB00001D90720F8BD3846FFF73EF878B1304643
:10FEC000FFF73AF858B16068FFF736F838B12B46BB
:10FED0003A46214601200096FDF7CAFCF8BD1020E5
:10FEE000F8BD00005420002084290020104902465B
:10FEF000087800281AD0042818D0022A14D0032A1F
:10FF000014D10A7912070FD48A69521C8A61B2F59A
:10FF10007A7F06D0022801D000F0A2BA487800F01B
:10FF2000FFBB0D20FBF70ABFFEF7FABB70470000CE
:10FF300054200020F8B504461C481E46154600799A
:10FF40000F46400701D40820F8BD1FB114B1206846
:10FF500098B901E00E20F8BD1548016869B14289E1
:10FF60004168008902FB00116268914205D925B100
:10FF7000A84202D3A919814201D90720F8BD384609
:10FF8000FEF7DAFF78B13046FEF7D6FF58B1606869
:10FF9000FEF7D2FF38B12B463A46214604200096A0
:10FFA000FDF766FCF8BD1020F8BD000054200020CD
:10FFB000842900202DE9FF4F91B08346DDE91E58CA
:10FFC0000878209E92460F46C0064FF0000414D5D4
:10FFD0000D949DF8340020F00F00401C20F0F0003C
:10FFE00010308DF8340028788DF835009DF83600F3
:10FFF00020F00600801C8DF836001C2105A8FBF7B8
:020000040002F8
:1000000070FA38788DF814000694089409943878BA
:10001000C00601D50DA800E00020CDE90A040127A3
:100020008DF83A7042F64D20ADF838000C9468789F
:100030008DF83000A8788DF831009DF83200142139
:1000400020F00600801C68F3C30020F0100040F090
:1000500001008DF832006846FBF743FA0DF13808CD
:100060000DF13009ADF80840CDE90089ADF80A403E
:10007000ADF80CA00494BBF8080033466A4605A905
:10008000A2DF00282CD18DF83A7042F60810ADF8A6
:1000900038000C9468788DF83000A8788DF831001D
:1000A0009DF83200142120F00600801C20F0190079
:1000B0008DF832006846FBF714FACDE900890FA8E5
:1000C0001499FCF7BEFEADF80800ADF80C000FA8BF
:1000D000ADF80A400490308806F108026946A3DFB3
:1000E00015B0BDE8F08F2DE9F04796B00D460646F5
:1000F0001C2106A8FBF7F5F900249DF818000A94C6
:1001000040F002008DF818004FF0010807948DF8B8
:100110003E8042F64B2009940B940C94ADF83C00C1
:100120000D9495F82C008DF8340095F82D008DF87D
:1001300035009DF83600142120F00600801C20F0C8
:10014000180040F001008DF836006846FBF7C9F949
:100150000DF13C090DF1340ACDE9009AA88CADF8F7
:100160000800ADF80A40A88CADF80C00286A04908D
:10017000308906F5A2736A4606A9A2DF002807D1D6
:1001800095F8260008B1A86A08B1002744E00720C6
:1001900016B0BDE8F0878DF83E8042F60710ADF846
:1001A0003C000D949DF8340010AA20F00F00401C74
:1001B00020F0F00020308DF834009DF835000EA9B5
:1001C00020F0FF008DF835009DF8360020F0060085
:1001D000801C20F019008DF83600A86A00EB87001B
:1001E00065DF0028D4D114216846FBF77AF99DF821
:1001F0003800ADF80800CDE9009AADF80C0010A861
:10020000ADF80A400490B6F8440106F5A6726946B6
:10021000A3DF0028BCD17F1C95F82600B842BADCC9
:100220000020B5E770B51446002242F64D25837CC8
:100230000BE000BF02EB820600EB4606B68A8E4258
:1002400001D1012123E0521CD2B29342F2D8002204
:1002500090F878300CE000BF02EB820600EB460617
:10026000B6F87A608E4201D1022110E0521CD2B25F
:100270009342F1D8002290F8DE3010E002EB8206C3
:1002800000EB4606B6F8E0608E4206D10321284610
:10029000FFF710F82060012070BD521CD2B29342CB
:1002A000ECD8002070BD000070B5012670044FF03E
:1002B000E0210025C1F88001084C4010C4F8480333
:1002C000C4F8080366602F20FBF7A4F8A660044C6E
:1002D0002F202561FBF79EF8E57070BD00100140EE
:1002E0009C20002009480A490022C37DC1F808214A
:1002F00043B1D1F81815437EC268D154417E491CE0
:1003000041767047D1F81805704700009828002002
:10031000002000401FB501228DF8080004488DF828
:1003200000200191D0E90012684690471FBD0000EF
:100330009828002008B502490020009108BD00005F
:10034000001F002010B503680A6889689C1A8C4257
:1003500002D9591A016010BD01210260017110BD5E
:1003600010B54B68026889689C1A8C4202D9114406
:10037000016010BD00210360017110BD0A7B1AB13C
:1003800049680160002102E00968016001210171F2
:10039000704710B5044600790028204602D0FFF7C8
:1003A000DFFF01E0FFF7CEFF206810BD2DE9F0412F
:1003B0000746806A14468846C8B3002531E000BF6E
:1003C000B96A05EB450001EB8006B088801CFE2869
:1003D00002D90C20BDE8F0812288401C08F80200F8
:1003E00020881622401C80B2208008F80020208837
:1003F000401C80B2208000EB0801308800F088FBB0
:100400002188084480B22080B28842B1B16871B1BD
:100410004044FBF74DF82088B188084420806D1CCB
:10042000EDB297F82C00A842CAD80020D2E7FFE727
:100430000720CFE7FBF75CBC10B50020FCF744FFBA
:1004400008B1FBF755FCFCF769FE08B1FBF750FC5F
:100450003CDF002803D0BDE81040FBF749BC10BDCD
:100460000C49087040B101280FD002280FD0032892
:100470000FD14869FEF79AB900208861C861064823
:100480004078002805D0FDF7C9B900F005B900F0A3
:1004900061B8704754200020B828002018B10349E3
:1004A000C860002070470E2070470000BC2000206C
:1004B0001CB5034901910091694660DF1CBD000035
:1004C000001F002070B50E46054614461421104644
:1004D000FBF707F80120208000212161217326729B
:1004E000657205B1A072002070BD10B511B1002079
:1004F000FBF7FEFBBDE81040FEF7B6BC0021024A48
:100500000846FBF74FBC0000EB040200FBF7DEBB24
:1005100070B509B18C0701D0072070BD064C0125CC
:10052000A16062800549636010DF0028F5D1257065
:1005300016202EDF70BD0000BC2000200D0502003B
:1005400018B103490861002070470E207047000071
:10055000BC2000202DE9F041164C606820F001001D
:1005600060601548017801EB810100EB8106356977
:10057000FFF7A9FBB5FBF0F76761FFF7A4FBF18874
:100580006D1E2944B1FBF0F08742606802D140F053
:10059000020001E020F0020060602079E16800F0D4
:1005A0000200084304D00020BDE8F04100F0B8B8D4
:1005B0000220F9E754200020B828002001484069B3
:1005C000FEF7F4B85420002010B5FFF76DFB441E71
:1005D000FFF779FB4443FFF776FB05494A69521E52
:1005E0005043CA682146BDE81040FEF7E2B800005B
:1005F000542000202DE9F0411048017801EB8101E1
:1006000000EB81042569FFF75EFBE1882289114434
:100610002944B1FBF0F200FB1216FFF745FB471E21
:10062000FFF751FB07FB0061E08822891044044A70
:1006300028441269BDE8F041FEF7BBB8B828002095
:100640005420002010B5FFF72FFB441EFFF73BFBA3
:100650004443FFF738FBB4FBF0F0BDE81040FEF771
:10066000A5B8000070B5FFF72EFB8608FFF72BFB3F
:100670000749496900FB01F4FFF716FB451EFFF728
:1006800022FB684332462146BDE87040FEF791B830
:10069000542000200020704770B51448017801EB09
:1006A000810100EB8104241DFFF70DFB6188104ED2
:1006B000884211D2FFF707FB61880D1AFFF703FB91
:1006C0008208A188E0680844216928442944FEF78B
:1006D00070F8FFF7F8FA07E0A288E06810448A088B
:1006E0002169FEF766F86088F06170BDB8280020C7
:1006F0005420002004480079000702D4012000F0B3
:100700000FB800F003B800005420002003484168EF
:1007100021F008014160407800F002B85420002028
:1007200002494870024951F8200000475420002037
:10073000700D020010B50446FFF7D8FB2046BDE857
:100740001040FBF7B1BE70B50C00054602D1002089
:10075000FBF7CEFA15B90020FBF7CAFA207828700B
:100760002088000A68702068000CA8702068000EBD
:10077000E87020792871207A68712089000AA871B0
:10078000A068000CE87170BD03480079000701D42F
:10079000FDF734B8FFF7BABF542000202DE9F84F19
:1007A000204C00256846D4E903B6FDF78BFF804650
:1007B000FEF7FCFB0746A946B8F1000F25D0002341
:1007C000009ACC46E06819E007680146974202D9D2
:1007D000BA1A026014E0C1F800C0D1F80C80D21B34
:1007E000C8693B448A46B8F1000F07D0F71827F0D4
:1007F0007F47C1E90178CAF81C500D460028E3D1B3
:10080000E0602846FEF730FC04E02846FEF72CFCAA
:1008100000B917B15846FDF775F884F80490BDE8A3
:10082000F88F00009C2000200D4B10B5D96831B125
:1008300002680C68A24204D8A21A0A60C161D8609A
:1008400010BD0B4603E00B46C969121B21B10C68B1
:100850009442F8D3A41A0C600260C161D86110BD43
:100860009C2000202DE9F0411D4DEC68002C35D076
:100870001C48002700682969B846401A20F07F46C6
:100880002068B04215D82246361A0744E469107C25
:1008900068B182F810806B6933B1D2E905019847DD
:1008A00028B1FBF725FA02E0D2E905108847002CB1
:1008B000E6D16978A878814206D1401CC0B2A87000
:1008C000022801D185F802800548A978183040F83F
:1008D0002170BDE8F0411420FAF7F8BEBDE8F081C0
:1008E0009C20002004150140064A0020C2F81C018B
:1008F0000548838A8168C95C838A5B1C8382C2F84D
:100900001C15704700200040982800201FB50021CA
:100910008DF8080005488DF80010826801928175F5
:10092000D0E90012684690471FBD000098280020BB
:100930002DE9FF413E4D4FF400712846FEF7CBFEF6
:1009400001273C4C4FF40178002600B34FF492711C
:100950002846FEF7BBFED0B1C5F82461C5F8088370
:10096000A07E00B96F6002208DF80000D5F88004E9
:10097000C5F880040390E07D8DF80800E0680190E0
:10098000E6752676D4E900126846904724E00421F3
:100990002846FEF7A0FEF8B14FF484712846FEF712
:1009A00095FEC8B1FFF79EFCE07D617E884213D1C1
:1009B000227E3AB1607EE168E2752269E2602676C5
:1009C000667607E0A07E00B96F60C5F80883E6751B
:1009D000607EE168FFF79EFC4FF48E712846FEF7BB
:1009E00075FE58B1A18AA07D814202D2FFF77CFF3B
:1009F00004E0C5F81C6108B1FFF788FF4FF4A2714D
:100A00002846FEF763FE00280FD0C5F84461A07E9B
:100A100000B12F60E07D002807D0E675607EE168B8
:100A200004B0BDE8F041FFF775BCBDE8FF810000F0
:100A300000200040982800207FB5334C4FF492717D
:100A40002046FEF74EFE314D0026B0B1C4F82461B9
:100A500002208DF80000D4F88004C4F880040390CC
:100A6000D4F83C058DF80800E8680190EE752E7604
:100A7000D5E90012684690471FE04FF48871204680
:100A8000FEF72FFEC8B1C4F81061D4F83C05E97D2B
:100A9000C0B2814211D12A7E5AB1E968D4F800323D
:100AA00023F02003C4F80032EA752A69EA602E7642
:100AB00001E0EE75E968FFF72DFC4FF4A2712046C6
:100AC000FEF70FFE50B1C4F84461E87D30B1EE7519
:100AD000D4F83C05E968C0B2FFF71CFC4FF49071F4
:100AE0002046FEF7FEFD00280CD0C4F82061A87D4A
:100AF000002807D0D4F84C0504B0C0B2BDE870405F
:100B0000FFF704BF7FBD00000020004098280020B0
:100B10000870000A487002207047000001218140DF
:100B2000024842688A434260704700003C2000202F
:100B300038B515494888A0F57F42FF3A23D04A7856
:100B4000124C521CD2B24A70237B93420AD3091D25
:100B500075DF002817D0A169002914D001B0BDE8C5
:100B60003040084700254D70217C29B13B2176DFBC
:100B700010B1A16901B188476169002903D08DF8DE
:100B800000506846884738BDDC1F0020E42600205E
:100B90000F480068C005C00D13D0103840B20028BF
:100BA00006DA00F00F0000F1E02090F8140D03E0E9
:100BB00000F1E02090F800044009012803D0032848
:100BC00003D00220704700207047012070470000CA
:100BD00004ED00E042788378521CD2B2934200D1F7
:100BE00000220378934201D1002070470A704168C7
:100BF000407800EB400001EBC00070472DE9FC415C
:100C00001646DDE90854CDE900541F46804602220D
:100C100000F00CF8002807D1CDE900543B46102223
:100C20003146404600F002F8BDE8FC812DE9FC5F4A
:100C30000026DDE90C4B994692468E468046278871
:100C4000354630E0D8F80400002200EB8500694604
:100C50000068019001A865DF002830D19DF80000F0
:100C600050451FD10EB1002100E002212288084426
:100C70001118594522D846B9521C90B2208009F863
:100C800000E02088401C20800126218801A801EB7B
:100C90000902694665DF002811D120889DF80010FF
:100CA000084420806D1CB8F80000A842CADC56B188
:100CB0002088C01B401E80B2FF2802D90C20BDE84E
:100CC000FC9F09F807000020F9E7017911B9007BC2
:100CD000002800D001207047D4200020010100002E
:100CE00000000000000000000100000028000000DB
:100CF0001E00000001000000800C0000B400000095
:100D00005425002074250020A02500200D0000009F
:100D10000E0000000F000000100000000D00030096
:100D200031D101000E00030031D101000F0003009A
:100D300031D101001000030031D10100C426002090
:100D400055F4010009E9010029E80100CDE901009D
:100D500051F40100D1E8010025E80100C9E90100D2
:100D60004DF401002DE8010021E80100C5E9010072
:100D70004506020065060200BD050200F5050200F9
:100D8000C9050200F506020041DB0100EDDA0100B1
:100D90008907020029EA01009029002003000000D1
:100DA000C00D0200001F0020D401000044B5010066
