:020000040001F9
:10B00000706A002005B501000DB501000FB5010003
:10B0100011B5010013B5010015B5010000000000D5
:10B0200000000000000000000000000017B5010053
:10B03000000000000000000019B501001BB5010070
:10B040001DB501001DB501003DBF01001DB501008A
:10B050001DB501001DB501002DBB01001DB501008E
:10B060001DB501001DB501001DB501001DB5010094
:10B070001DB501001DB501001DB501001DB5010084
:10B080001DB5010095BC01001DB501001DB50100F5
:10B09000B9BC01001DB50100BDBC01001DB501001A
:10B0A0001DB501001DB501001DB501001DB5010054
:10B0B0001DB501001DB501000000000000000000EA
:10B0C0001DB501001DB501001DB501001DB5010034
:10B0D0001DB501001DB501000000000000000000CA
:10B0E0000000000000000000000000000000000060
:10B0F0000000000000000000000000000000000050
:10B10000000000000000000000000000000000003F
:10B11000000000000000000000000000000000002F
:10B40000DFF80CD000F0D4FA00480047C1F8010082
:10B41000706A0020401E00BF00BF00BF00BF00BF19
:10B4200000BF00BF00BF00BF00BF00BF00BF00BF24
:10B4300000BF00BF00BF00BF00BF00BF00BF00BF14
:10B4400000BF00BF00BF00BF00BF00BF00BF00BF04
:10B4500000BF00BF00BF00BF00BF00BF00BF00BFF4
:10B4600000BF00BF00BF00BF00BF00BF00BF00BFE4
:10B4700000BF00BF00BF00BF00BF00BF00BF00BFD4
:10B4800000BF00BF00BFC5D170470000401E00BF15
:10B4900000BF00BF00BF00BF00BF00BF00BF00BFB4
:10B4A00000BF00BF00BF00BF00BF00BF00BF00BFA4
:10B4B00000BF00BF00BF00BF00BF00BF00BF00BF94
:10B4C00000BF00BF00BF00BF00BF00BF00BF00BF84
:10B4D00000BF00BF00BF00BF00BF00BF00BF00BF74
:10B4E00000BF00BF00BF00BF00BF00BF00BF00BF64
:10B4F00000BF00BF00BF00BF00BF00BF00BFC5D17D
:10B50000704700000648804706480047FEE7FEE710
:10B51000FEE7FEE7FEE7FEE7FEE7FEE7FEE70000E8
:10B52000E1BC010001B4010040EA01039B0703D024
:10B5300009E008C9121F08C0042AFAD203E011F872
:10B54000013B00F8013B521EF9D27047D2B201E034
:10B5500000F8012B491EFBD270470022F6E710B518
:10B5600013460A4604461946FFF7F0FF204610BD71
:10B5700030B504460020034600E05B1C934203D232
:10B58000E05CCD5C401BF8D030BD00F0004230F0F4
:10B5900000400AD0C10D01F56071C0F3160042EA07
:10B5A0000151C2084007114370470020014670470F
:10B5B00030B50B46014600202022012409E021FA83
:10B5C00002F59D4205D303FA02F5491B04FA02F580
:10B5D0002844151EA2F10102F1DC30BD2DE9F05F17
:10B5E0000546002092469B468846064681464024F2
:10B5F0001BE0284641464746224600F0FAF95346EA
:10B600005A46C01A914110D311461846224600F0FE
:10B61000E1F92D1A67EB01084F462246012000216F
:10B6200000F0D8F917EB00094E41201EA4F10104E7
:10B63000DFDC484631462A464346BDE8F09F2DE907
:10B64000FE4F804681EA0300C00F0C46009021F0B7
:10B65000004123F00045B8EB0200A94105D2404665
:10B66000214690461C460B46024623F000401043FC
:10B6700047D0270DC7F30A00C3F30A510290401ABE
:10B68000019040286BDAC3F3130040F4801B00984C
:10B69000924620B10023D2EB030A63EB0B0B019817
:10B6A0005946C0F14002504600F094F906460D4656
:10B6B00050465946019A00F0ACF910EB0800614180
:10B6C000002487EA115284EAE7731A4340D0009AB3
:10B6D00062B3019A012A4FEA075215DC001B61EBA5
:10B6E00002014FF0004202EA0752CDE90042001C7D
:10B6F00041F5801132462B4600F0ACF903B0BDE8AD
:10B70000F08F40462146F9E7001B61EB0201001C67
:10B7100041F5801300185B412018A2F5001747EB94
:10B72000030140EAD570B6196D4111E06D084FEA8A
:10B73000360645EAC0754FEA0752001B61EB02016D
:10B74000001C41F5801149084FEA300000195141B1
:10B7500032462B4603B0BDE8F04F00F06CB90098BC
:10B76000012240000023D0EB020263EBE07300985B
:10B7700021464FEAE074B8EB000061EB0401E9E711
:10B7800083F000435BE781F0004158E72DE9FE4F6D
:10B7900081EA030404F0004421F0004100944FF0DA
:10B7A000000B23F0004350EA01045ED052EA030488
:10B7B0005BD0C3F30A54C1F30A552C44A4F2F3340A
:10B7C0000194A0FB0254C1F3130141F48011C3F3AF
:10B7D000130343F4801301FB024400FB034E840A6D
:10B7E000970A44EA815447EA8357A4FB0768029505
:10B7F0008D0A05FB07854FEA932C04FB0C542705A3
:10B80000029D4FEA065847EA1637B5EB08056EEB7E
:10B81000070C870E920E47EA811742EA8312A7FBB4
:10B820000201B6EB0B0164EB00042B0D43EA0C3371
:10B830005E1844EB1C50DA465146E7FB0201C5F3A3
:10B8400013044FEA0B3343EA14534FEA0432019CCA
:10B8500043EA0603A4F10C040294009CCDE900B471
:10B8600000F0F8F803B0BDE8F08F00200146F9E7DA
:10B870002DE9F04D81EA030404F0004B21F000456E
:10B8800014464FF0000A23F0004150EA050220D090
:10B8900054EA01021DD0C5F30A570246C5F313034B
:10B8A000C1F31300C1F30A5640F4801543F480132A
:10B8B000A7EB0608101BD64608F2FD3873EB05000F
:10B8C00002D308F1010801E092185B41B8F1000FC2
:10B8D00003DA00200146BDE8F08D00204FF480110E
:10B8E000064684460EE0171B73EB050705D3121BB3
:10B8F00063EB050306434CEA010C49084FEA3000AC
:10B9000092185B4150EA0107EDD152EA030012D0D0
:10B9100082EA040083EA0501084305D0101BAB410D
:10B9200006D20122002306E000224FF0004302E08D
:10B930006FF0010253101AEB06004CEB085110EBAC
:10B940000A0041EB0B01BDE8F04D00F074B8C1F303
:10B950000A52C1F3130140F2FF3341F480119A42BD
:10B9600002DA00200146704740F233439A42A2F2C5
:10B97000334202DC524200F03CB800F02BB8000029
:10B9800030B5041E71F1000404DB4FF00044404266
:10B9900064EB0101141E73F1000405DB1C464FF03B
:10B9A0000043524263EB0403994208BF904230BD0A
:10B9B000064C074D06E0E06840F0010394E80700FC
:10B9C00098471034AC42F6D3FFF71EFD90160200E4
:10B9D000B0160200202A04DB203A00FA02F100200F
:10B9E00070479140C2F1200320FA03F319439040BD
:10B9F0007047202A04DB203A21FA02F00021704728
:10BA000021FA02F3D040C2F12002914008431946C6
:10BA10007047202A06DBCB17203A41FA02F043EAAE
:10BA2000E07306E041FA02F3D040C2F120029140F7
:10BA300008431946704710B5141E73F1000408DA64
:10BA4000401C41F1000192185B411A4301D120F0E2
:10BA5000010010BD2DE9F04D92469B4611B1B1FA9F
:10BA600081F202E0B0FA80F220329046FFF7B2FF96
:10BA700004460F4640EA0A0041EA0B0153465A4683
:10BA8000084313D0114653EA010019D0C8F140020F
:10BA90005046FFF7AEFF05460E4650465946424611
:10BAA000FFF798FF084305D0012004E020463946FF
:10BAB000BDE8F08D0020054346EAE0762C4337438D
:10BAC0000A986305E40AA0EB08000022FD0A44EA94
:10BAD00047540A3002D500200146E9E70105101954
:10BAE0006941DDE9084500196941BDE8F04DA2E76B
:10BAF00030B58C1810F8012B12F00F0301D110F89B
:10BB0000013B120906D110F8012B03E010F8015B8C
:10BB100001F8015B5B1EF9D101E001F8013B521E07
:10BB2000FBD1A142E6D3002030BD00002DE9F04753
:10BB30000025DFF8F090A8464FF4807601242F46C8
:10BB4000304604F0B7FB38B1D9F80403204203D0E3
:10BB5000304604F0A5FB2543361D64007F1CB6B2B9
:10BB6000082FEDD34FF4BE74204604F0A3FB38B188
:10BB7000204604F095FB2C4845F00045D0F80080A5
:10BB80002A4E15F0FF0F14D0012700242F420CD0AD
:10BB900009EB8401D1F81005D1F81015C0F3042089
:10BBA00056F82420C1F3014190477F00641C082C03
:10BBB000ECD3002D32DA0024B14609EB04004E46E6
:10BBC00090F95010491C26D090F8507027F0C0050D
:10BBD000284602F0E7F956F82060E6B1BF090120D7
:10BBE000A840A90001F1A041D1F8001710EA080F00
:10BBF000C1F3014102D0022902D00CE003290AD18D
:10BC0000032F05D102290BD00221284604F039FB6D
:10BC100039462846B047641C042CCED3BDE8F087D3
:10BC20000321F2E70060004010050050402700208B
:10BC300000F01F02012191404009800000F1E02046
:10BC4000C0F88012704700F01F02012191404009A6
:10BC5000800000F1E020C0F80011704700F01F02E2
:10BC6000012191404009800000F1E020C0F800125D
:10BC700070474907090E002806DA00F00F0000F1AE
:10BC8000E02080F8141D704700F1E02080F80014D7
:10BC90007047000007480021C0F84011C0F8441167
:10BCA000C0F84811C0F84C11C0F80011C0F80411D8
:10BCB00005F0A0B90010014005F038B9074810B5EB
:10BCC000406830B18047002807D0BDE8104000F040
:10BCD00031BFBDE8104003F08DBC10BD182000201E
:10BCE000F0B58C480022041D0378211D081D012693
:10BCF000062B17D125782D0714D10D78C5F3031520
:10BD0000032D03D1077817F0F00F0ED0042D03D1C7
:10BD1000077817F0F00F08D0052D03D1057815F03E
:10BD2000F00F02D0062B09D014E04FF08055D5F863
:10BD30004452794FC5F342353D6002E025782D0726
:10BD400008D10D78C5F30315032D03D1057815F03F
:10BD5000F00F02D0062B06D01DE0704D2F6827F0A3
:10BD600080772F601AE025782D0714D10D78C5F360
:10BD70000315032D03D1077817F0F00F0ED0042D13
:10BD800003D1077817F0F00F08D0052D03D10578FF
:10BD900015F0F00F02D0062B0AD015E04FF08045C9
:10BDA000C5F80C21C5F810215B4D2D1F2A6002E05B
:10BDB00025782D0708D10D78C5F30315032D03D180
:10BDC000057815F0F00F02D0062B05D066E0524C36
:10BDD00003236434236002E023781B075ED10978D3
:10BDE000C1F30311052959D1007810F0F00F55D196
:10BDF0004B4800684B4908604948001D0068091D10
:10BE00000860474808300068091D086044480C3045
:10BE10000068091D0860424810300068091D08606C
:10BE20003F4814300068091D08603D48183000681C
:10BE30003C49203108603A481C300068091D086000
:10BE4000374820300068091D0860354824300068F4
:10BE5000091D0860324828300068091D0860304814
:10BE60002C300068091D08602D48303000682D49CD
:10BE7000403108602A4834300068091D08602848AD
:10BE800038300068091D086025483C300068091DED
:10BE90000860234840300068091D08601F48743856
:10BEA000016841F470010160BFF34F8FBFF36F8FE2
:10BEB0004FF01021D1F80002002803DBD1F8000276
:10BEC000002822DA184B1E6018480468002CFCD0A9
:10BED0001524C1F800420568002DFCD0C1F80442C9
:10BEE00001680029FCD01A6001680029FCD0BFF36A
:10BEF0004F8F0A48F03801680D4A01F4E0611143A0
:10BF00000160BFF34F8F00BFFDE70B490948086090
:10BF1000F0BD0000E00F00F03C050040FCED00E04B
:10BF20000404001020C5004004E5014000E4014085
:10BF30000400FA050090D0032C2000200348007F65
:10BF400008B105F09FB905F019B900009827002045
:10BF50000FB4054B10B503A9044A029800F0CAF8C3
:10BF600010BC5DF814FB000093F20100F41F0020E8
:10BF700002E008C8121F08C1002AFAD170477047B2
:10BF8000002001E001C1121F002AFBD17047000010
:10BF90002DE9FF5FDDE90220010DDDF838B0024335
:10BFA00018D044F61050A1F2FF3141430D140F9800
:10BFB000012820D0A5EB0B00401C5FEA000A4FF0DF
:10BFC0000004474EDFF81C91A046504616D5CAF132
:10BFD000000728E00F98012443A2012808D000217F
:10BFE00000980F9BC0E90021C0E90243BDE8FF9F14
:10BFF0006FEA0B01F4E7CBF10000DEE7074612E041
:10C00000F80707D02246334640464946FFF7BEFBB5
:10C01000804689462246334610461946FFF7B6FB4E
:10C0200004460E467F10002FEAD1DDE90201BAF185
:10C03000000F42464B4602DAFFF7A8FB01E0FFF78C
:10C0400017FC04460E460022284BFFF799FC03D844
:10C050004FF0FF30014607E00022254B20463146D5
:10C06000FFF7EDFAFFF773FC102409E0002C0ADB60
:10C070000A220023FFF7B2FA019B30321A55641EE0
:10C0800050EA0102F2D1641C019AC4F11103144474
:10C090000F9A012A03D0012208430DD10AE0084378
:10C0A00004D000204FF0110B0F9080E7A3EB0B059D
:10C0B0006D1E0DE05B4504DD4FF0000205F101054A
:10C0C00004E003DA4FF00002A5F10105002AECD0EC
:10C0D00000980F99C0E90231C0E9004586E70000E9
:10C0E000000024400000F03F300000000000F0435A
:10C0F0000000E03F2DE9FF4F95B09B46894606467C
:10C1000000250FE2252877D100242746F84A01218F
:10C11000059400E0044316F8013F203B01FA03F0C8
:10C120001042F7D130782A2811D06FF02F033078E1
:10C13000A0F13002092A16D8059A44F0020402EB55
:10C14000820203EB42021044761C0590EFE759F897
:10C15000042B0592002A03DA504244F4005405905F
:10C1600044F00204761C30782E2816D116F8010F00
:10C1700044F004042A280DD06FF02F023078A0F18B
:10C180003003092B09D807EB870302EB4303C718D9
:10C19000761CF3E759F8047B761C30786C280FD0B6
:10C1A00006DC4C2817D068280DD06A2814D104E08A
:10C1B000742810D07A280FD10DE044F400140AE05E
:10C1C00044F4801401E044F440147278824202D1B5
:10C1D00004F58014761C761C307866280BD013DCAE
:10C1E000582877D009DC002875D04528F6D0462895
:10C1F000F4D047281AD19DE118E0632835D064288F
:10C2000079D0652812D195E1702873D008DC6728B1
:10C21000F1D069286FD06E280DD06F2806D1B5E017
:10C2200073282CD0752875D0782874D05A46179961
:10C2300090476D1C75E1C4F30250022809D0032811
:10C240000DD0D9F8001004280DD00D6009F10409B3
:10C2500067E1D9F80010EA17C1E90052F6E7D9F80A
:10C2600000100D80F2E70D70F0E719F8041B8DF84F
:10C27000001000208DF80100EA46012003E059F883
:10C2800004AB4FF0FF3061074FF0000102D40DE026
:10C2900008F101018846B9420FDA8045F8DB1AF847
:10C2A00008100029F4D108E008F101018846814214
:10C2B000FADB1AF808100029F6D105985B46A0EBC6
:10C2C000080721463846179A00F094FA284400EBF4
:10C2D000080507E04DE029E10DE01AF8010B5A4688
:10C2E00017999047B8F10108F7D25B4621463846C6
:10C2F000179A13E142E00A220092C4F302524FF06F
:10C30000000A022A08D059F804CB032A4FEAEC713C
:10C310000AD00DE029E02AE009F1070121F0070227
:10C32000F2E802C1914609E00FFA8CFC4FEAEC7189
:10C33000042A03D14FFA8CFC4FEAEC71002907DA8A
:10C340000A460021DCF1000C61EB02012D2202E023
:10C35000220504D52B228DF80420012203E0E207F8
:10C3600001D02022F7E7904659E00A2102E010228E
:10C370000DE010214FF0000A00910BE010224FF069
:10C38000000A44F004040827009203E008224FF05A
:10C39000000A0092C4F30252022A05D059F804CBD5
:10C3A0000021032A08D009E009F1070121F0070262
:10C3B000F2E802C1914605E01FFA8CFC042A01D183
:10C3C0000CF0FF0C4FF00008220728D5702806D08B
:10C3D000009B83F0100353EA0A0305D00EE04022CD
:10C3E0008DF80420012208E05CEA010206D0302228
:10C3F0008DF804208DF8050002229046009B83F002
:10C40000080353EA0A030AD15CEA010201D1620778
:10C4100005D530228DF804204FF001087F1E5828E2
:10C4200004D034A003900EA802900DE036A0F9E7E6
:10C4300053466046009AFFF7D1F884460398825C21
:10C440000298401E029002705CEA0100F0D102984E
:10C4500006A9081A00F1200A600702D524F48034E6
:10C4600000E00127574502DDA7EB0A0000E00020AD
:10C4700000EB0A01009005984144401A0590E00342
:10C4800006D45B462146179A059800F0B3F9054497
:10C49000002706E001A85A46C05D179990476D1C19
:10C4A0007F1C4745F6DBE0030CD55B462146179A17
:10C4B000059800F09FF9054404E030205A4617998A
:10C4C00090476D1C0099481E00900029F5DC08E09B
:10C4D000029802995A460078491C02911799904790
:10C4E0006D1CBAF10001AAF1010AF1DC65E100005E
:10C4F000092801003031323334353637383961623A
:10C5000063646566000000003031323334353637FD
:10C5100038394142434445460000000000F058F9D4
:10C520000544761C307800287FF4ECAD19B028461D
:10C53000BDE8F08F620700D4062709F1070222F058
:10C54000070CFCE80223E14603F000485FEA080C10
:10C5500002D00FF2702C0DE05FEA045C02D50FF2FE
:10C56000682C07E05FEAC47C02D00FF2602C01E087
:10C57000AFF2700C4FF0FF3823F00043CDF850C0FD
:10C5800065280CD006DC452809D046281DD0472850
:10C590003DD13DE0662818D067287ED138E00021E3
:10C5A000112F01DB112000E0781CCDE9000106A964
:10C5B0000EA8FFF7EDFCDDE90F010E9A03910021B3
:10C5C000009207F1010A04914DE04FF000400097FE
:10C5D000CDE9011006A90EA8FFF7DAFCDDE90F028C
:10C5E00003920E9B11990022DDF80CA00093049297
:10C5F00011B9791C00EB010AB7EB0A0004D4C0F1B1
:10C60000FF3007F1010A0490AAEB0700019044E013
:10C61000012F00DA01270021112F01DD112000E098
:10C620003846CDE9000106A90EA8FFF7B1FCDDE907
:10C630000F010E9A0391002104910092BA4621073E
:10C640000CD40399514500DA8A46BAF1010F05DD91
:10C65000009AAAF10101515C302908D0B84202DAEF
:10C6600010F1040F06DA0121CDE9011015E0AAF15D
:10C670000101E9E7002805DC049901440491AAEBD3
:10C68000000102E0411C514500DD8A460499401A30
:10C69000401C01904FF000400290200704D4019804
:10C6A000504501DBCDF8048000208DF84F00029842
:10C6B0000DF14F07B0F1004F25D02B200E900298BE
:10C6C0004FF0020800280CDA404202902D200E9014
:10C6D00007E00A210298FEF76BFF3031029007F85D
:10C6E000011DB8F10001A8F10108F2DC0298002850
:10C6F000EFD1791E0E980870307800F0200040F0DD
:10C70000450007F8020D12A8C01B00F10708149895
:10C71000007800B1012000EB0A01019801EBE07103
:10C7200005984144401A401E0590E00306D45B463C
:10C730002146179A059800F05DF805441498007892
:10C7400018B15A46179990476D1CE00324D55B46F3
:10C750002146179A059800F04DF805441CE004980E
:10C76000002807DBDDE90301884203DD0098405C17
:10C77000179901E0179930205A469047049805F11F
:10C780000105401C04900198401E019004D12E2008
:10C790005A46179990476D1CBAF10001AAF1010A97
:10C7A000DDDC05E017F8010B5A46179990476D1C20
:10C7B000B8F10001A8F10108F4DC5B462146179AA4
:10C7C0000598ABE62D0000002B00000020000000C3
:10C7D0002DE9F041044600251E461746880404D47E
:10C7E00005E039462020B0476D1C641EF9D5284667
:10C7F000BDE8F0812DE9F041044600251E46904633
:10C80000C80301D5302700E02027880404D505E0BF
:10C8100041463846B0476D1C641EF9D52846BDE830
:10C82000F0812DE9FC5F0025168807461580406BD6
:10C8300014468946A8464FF00C0A11234FF0020B0C
:10C8400098B101784846032E48D380F800B022887A
:10C85000521C92B2228083542288521C92B22280AF
:10C8600009F802102088401C20803A6BDAB1208839
:10C87000494600F11205B54230D80B5420881023E8
:10C88000401C80B220800B542088401C20800F2048
:10C890002388155C401ECD54238840B25B1C238046
:10C8A0000028F5DA454697F82E0030B13346224687
:10C8B000494602F00DFF050011D197F82D0030B167
:10C8C00032462146484600F099FD050007D1B87868
:10C8D00020B32088C846001DB04202D95046BDE8AA
:10C8E000FC9F684679DF0028F9D12188032008F8E9
:10C8F000010020881921401C80B2208008F8001017
:10C900002088401C80B2208000EB0801BDF80000A8
:10C9100004F029FD0146208808442080F878B8B149
:10C92000228897F90310D31C4846B342D6D800F8A2
:10C9300002B022880123521C92B2228083542288A2
:10C94000521C92B2228009F802102088401C2080DC
:10C950007868B8B1218890F90020CB1C4846B342D2
:10C96000BCD800F801B021880A23491C89B2218073
:10C9700043542188491C89B2218009F8012020886C
:10C98000401C2080388950B1CDE900464B46062234
:10C99000022107F1080004F065FD05009FD1388AE7
:10C9A00050B1CDE900464B460722032107F11000A4
:10C9B00004F058FD050092D1388B50B1CDE9004606
:10C9C0004B461522142107F1180004F04BFD050019
:10C9D00085D1386A30B133462246494601F042FCDF
:10C9E0000500DBD1786A30B133462246494603F070
:10C9F000BDF80500D2D197F82C0038B13346224655
:10CA00004946384604F058F80500C7D1387838B19F
:10CA1000334622464946384603F0DAF80500BDD1D0
:10CA200028465CE710B501220221002001F0D4F86D
:10CA300008B1072810D107220221012001F0CCF80B
:10CA400008B1072808D100210A22084601F0C4F8DD
:10CA500008B1072800D1002010BD0000064800687A
:10CA60004FF40021044A8143121D1160111D00F48E
:10CA700000200860704700000405005070B50024D5
:10CA8000064D06E06868012110F8340003F01EF935
:10CA9000641C28788442F5D3002070BDE01F00207C
:10CAA000F8B515460C460646052A01D20720F8BD02
:10CAB00003F0EEF918B903F0C1F90028F7D11049D5
:10CAC00000204E600C70C1E902500E4D08610DE06F
:10CAD00006EBC4006968009181788DF80110007838
:10CAE000094A694603F044F90028E0D1641EE4B223
:10CAF000EED2BDE8F840054A0021024800F07AB8BD
:10CB0000E01F00203C16020025F5010015E401009D
:10CB1000BFF34F8F05480168054A01F4E0611143F6
:10CB20000160BFF34F8F00BFFDE700000CED00E098
:10CB30000400FA050EB500210091CDE901106A4606
:10CB400044F20100FFF7E4FF014B1B6818470000A7
:10CB50001C27002010B58268C368934203D002F0FE
:10CB6000EDF9002010BD052010BD29B112B1531EF2
:10CB7000134203D0092070470E2070470160838064
:10CB800000218160C1600846704710B58268C368A3
:10CB90009A1A83889A4203D802F0DAF9002010BD6D
:10CBA000042010BD38B50C46074BA268097802EB8B
:10CBB000420253F82250054A126A0092024604F1DA
:10CBC00008002369A84738BD142A0020B41F00209C
:10CBD000074910B50A7802EB820201EB8201091DB8
:10CBE000FFF7E0FFBDE81040042004F031B800007A
:10CBF000B8270020074B9B6823B12AB120B10068F9
:10CC0000037C1BB1082070470720704741744261C4
:10CC100000207047F81F00202DE9F0478046994614
:10CC200014460F4690074FF0000634D11C4D8CB3CC
:10CC300003F0B4FE0320C5F81490287004F1180026
:10CC4000002107EB4703AC6004EBC102491C1670DE
:10CC500056709770506000EBC3000329F4DBEE6060
:10CC60006E70AE701420FEF7E3FF03211420FFF76F
:10CC700000F81420FEF7E7FF0A49C1F800800321FD
:10CC80001120FEF7F6FF0748001F0068286100200A
:10CC9000BDE8F08701E00720FAE7AE60FBE700009F
:10CCA000F81F0020081501402DE9F843DFF87090C7
:10CCB0000D461746D9F80810044651B34CB3052D5C
:10CCC00002D20720BDE8F883606910B3607C0128B8
:10CCD00021D0002604F090FBD9F80810804601EB23
:10CCE000C800694604F0AAFBB8B1012100F8041B92
:10CCF0000C4910C0096880E8E200D9F8081001EB7F
:10CD0000C8009DF8001041701420FEF7A7FF002016
:10CD1000D8E70820D6E72E46DCE70420D2E700005B
:10CD2000F81F002004150140F8B5124E0446B16802
:10CD3000E1B1DCB16069C8B10027277404F05CFB85
:10CD40000546B068694600EBC50004F077FB78B192
:10CD5000022101704460B0689DF8001000EBC5002E
:10CD600041701420FEF77AFF3846F8BD0820F8BD60
:10CD70000420F8BDF81F002070B50446234888B091
:10CD80001E460D00426035D0A888296882B220482E
:10CD9000FFF7EBFE00282ED1A889A96882B21C48B3
:10CDA0001030FFF7E2FE002825D1202219496846FD
:10CDB000FEF7BAFBA0680690207900B101208DF83B
:10CDC00014008DF81C60607900B10E208DF81500FC
:10CDD000E0780290A078039020780190607800902D
:10CDE0000D49684603F05EF8002804D19DF81D0047
:10CDF00018B104E0072008B070BD03F0E3F8034861
:10CE00000121801C03F098F8F5E70000D81F0020EE
:10CE10002C2A00201C160200C110020010B5044686
:10CE2000074801214470401C03F072F9112805D114
:10CE30002146BDE810400348FFF7A7BE10BD000023
:10CE4000D81F00203C2A00202DE9F041044600684C
:10CE500003F00DFA2078174F012606FA00F038602B
:10CE60000021606803F0FAF91348144D007FA069AF
:10CE7000C5F82405607D217D0843C5F86C05D4E91B
:10CE80000001C5F80C05C5F81415207D01280FD147
:10CE90000021A06803F0E2F9E06803F0E8F9207BE4
:10CEA00086403E60D4E90201C5F80815C5F81005B2
:10CEB000BDE8F081080500509827002000200040C0
:10CEC000F0B50C4693B01F210726ADF80010ADF861
:10CED0000410002750B1C17849070DD56A4602A950
:10CEE000FFF79FFC002808D102AD02E00025ADF855
:10CEF00000706CB1E07810B1304613B0F0BD01AAFB
:10CF00000AA92046FFF78DFC0028F6D10AAA02E004
:10CF10000022ADF80470BDF80400C3B2BDF80000F3
:10CF2000C1B2284672DFE8E770B50D46049916468F
:10CF3000040040D0F6B3414800224271C0E90331F9
:10CF4000242231463E48FEF7EFFA00F0D5F83C497E
:10CF50003431A1F1100001602031816038215C384A
:10CF6000FEF7FBFA3648217838380170A1788170D5
:10CF7000E178C17061784170D4E90412C0E904120B
:10CF8000D4E90212C0E90212D4E90612C0E906127D
:10CF9000616AD1B100F1AC0100F1B80241628A606E
:10CFA000636A1B880B80616A436A898899800021C3
:10CFB000436A07E0FFE70E2070BD666AB668765CDC
:10CFC0005654491C9E888E42F7D8A16AD9B11C4A92
:10CFD000AC32A2F10C018A608162A36A9B888B80CB
:10CFE000A16A836A098819800021836A04E0A66A1D
:10CFF000B668765C5654491C9E888E42F7D894F8E1
:10D000002C1080F82C10216A49B10C4914310162AE
:10D01000226A52884A80216A026A098811806168FE
:10D0200021B10649891D4160616841602946BDE81A
:10D03000704003483838FFF743BF0000681F0020E6
:10D04000E824002010B502881D4C102A18D00021B9
:10D05000112A1BD0192A18D18079002815D160799E
:10D06000012820D0022824D0032824D004280CD161
:10D070002171E2680846002A07D0BDE81040104739
:10D08000017D012901D18088208110BD61708088D7
:10D0900021898842F9D1012006E021690029F4D0D4
:10D0A000BDE810400847022000F04AF80028F4D1FB
:10D0B00010BD0320F8E7032020710420F4E70000EE
:10D0C000681F002010B5022801D0032810D1094C98
:10D0D000207800280CD000202070607900F030F813
:10D0E000002805D02169002902D0BDE8104008477A
:10D0F00010BD0000681F002002480021816181836B
:10D1000081777047681F00200B4810B50078012810
:10D1100010D10A4C607868B9607910B174DF0028CA
:10D1200009D101206070607900F00AF810B121691E
:10D1300001B18847002010BDE8240020681F0020AE
:10D140002DE9F04F724C87B00026607106A8069654
:10D1500003F0FCF90127082805D0002871D10698B2
:10D1600010B12770C0E00696FFF7C6FF694D6878DA
:10D1700010B16079012804D0A87848B160790228FC
:10D1800006D1E16819B1E7700820884700E0E67031
:10D190006079DFF87C814FF0020A08F118084FF03F
:10D1A000030B012806D1687840B108F1010003F0B3
:10D1B0008BF918B16079022802D00AE084F805A042
:10D1C000A87820B108F1010003F07EF908B984F8CD
:10D1D00005B0287B4FF0040920B96079032801D1FC
:10D1E00084F80590287E20B96079042801D1667101
:10D1F0002671E16841B16079032801D0042803D188
:10D20000287808B16078C0B1A67018216846FEF78A
:10D21000A4F98DF8006001968DF808600396607996
:10D2200001280FD0022817D03A4E2436A6F15C0709
:10D2300003281ED004284DD13BE0A7700720884763
:10D24000E3E752E0ADF81260CDF804808DF800708D
:10D25000ADF8106027713FE0CDF804808DF80070C4
:10D260002889ADF81200A888ADF8100084F804A051
:10D2700032E0A88AADF81200288AADF810002548DF
:10D28000243004F056F918B1287808B1607810B14C
:10D2900084F804B01EE01F488DF808A0039687F8B4
:10D2A000039000213838FFF70BFE00281DD1052020
:10D2B0002BE0A88BADF81000288CADF812001548B3
:10D2C000243004F036F918B1287808B1607878B1C4
:10D2D00084F80490607918B1684673DF002804D19F
:10D2E000E16809B120798847002007B0BDE8F08FD8
:10D2F00008488DF808A0039687F803900021383875
:10D30000FFF7DEFD0028F0D106202071E2E70000E3
:10D31000681F0020E824002070B5054601461C2245
:10D320000F48FEF701F90F4C00262670286830B12F
:10D33000016861604068A060201D7ADF02E0094852
:10D34000001D7BDF00280AD14FF6FF7060806670F9
:10D35000BDE87040044A00210448FFF74BBC70BD93
:10D36000D4250020881F0020991302009C1502007C
:10D3700070B5204C068800251D49E289102E15D075
:10D380001D4B112E1ED0122E2BD0502E19D130F83D
:10D39000061F914215D1018B022912D1807E10F017
:10D3A000010F13D0BDE8704000F0A2BF83884B800E
:10D3B000D0F81630CB60D0F81A0008614D70002A02
:10D3C000F0D070BD4FF6FF7048804D701868FFF7C1
:10D3D000ABFC0028F5D0A1690029F2D0BDE870406F
:10D3E000084750F8062FCA6040680861DAE7000075
:10D3F000881F0020D42500209C1502007CB505461E
:10D4000008880C460930904201D90C207CBD684642
:10D4100071DF0028FAD121880820685420881B2158
:10D42000401C80B2208029542088401C80B220807B
:10D430002844DDF801100160BDF8051081802088C6
:10D44000801D80B220809DF8001001B10121295477
:10D450002088401C208000207CBD000070B5044660
:10D4600001F09AF92146104800F01CFA2046FFF717
:10D470007FFF204600F0E6FA20880C4D102802D0ED
:10D4800011280BD107E0072000F0C8FB08B1FFF717
:10D4900051FBA08801E04FF6FF7068802046BDE890
:10D4A0007040FFF7CFBD000068230020001F002060
:10D4B00070B586B0040034D0002514200095ADF876
:10D4C0000000ADF802500191B4F85410608F6A4624
:10D4D000A4DF0646014614A0FEF73AFD608FA0F5D2
:10D4E0007F41FF391AD00295039504950595B4F84C
:10D4F0004C00ADF8080002208DF80A00BDF80200CB
:10D50000ADF80C000198CDF810D00590608F02A9FD
:10D51000A6DF064601460AA0FEF71AFD304606B011
:10D5200070BD0E20FBE700007365742076616C759A
:10D5300065206572723A253034580D0A00000000EB
:10D54000696E6469636174652076616C75652065D8
:10D5500072723A253034580D0A0000002DE9F04F60
:10D56000B2490446A3B00FC916AE86E80F000DF10C
:10D570006A0116A863DF074642F6E070ADF868005E
:10D58000AB4A1AA90120A0DF06463946A9A0FEF73A
:10D59000DFFC3146AAA0FEF7DBFC00261C2108A810
:10D5A0001396FDF7DAFF9DF84C00214620F00F009E
:10D5B000401C20F0F00010308DF84C0094F836003C
:10D5C0008DF84D009DF84E000B9620F00600801C53
:10D5D0008DF84E009DF82000099620F02A0742F6AB
:10D5E000E17060F30F050D960C961BA80E9600F0E7
:10D5F000C7F947F00A008DF8200004F13C0004F15F
:10D6000034070196CDE9067013211BAA0096CDE9D7
:10D610000421CDE90265334631460A9A089802F0A2
:10D6200013FF01468BA0FEF793FC42F6E27060F315
:10D630000F050DF1540814F1140602D10020FFF774
:10D6400079FA30788DF8540008F10101708803F000
:10D6500085FE9DF82000032140F02A008DF820006F
:10D66000804613A80D9004F1440015AACDE9067078
:10D67000CDE904210CAB039593E807008DE8070082
:10D680000DF1200999E80F0002F0DEFEDFF8A0910D
:10D690000026A9F10409014689F8006071A0FEF78F
:10D6A00057FC42F6E37060F30F0504F1180120A85F
:10D6B00001F008FC28F0080040F022008DF820005E
:10D6C000834604F14C00CDE90670092120AACDE97A
:10D6D000042103950D983346CDE90060029631464A
:10D6E0000A9A089802F0B0FE014689F8016061A02C
:10D6F000FEF72EFC42F6E47060F30F0594F8250067
:10D70000A846801C814602F0FBF98246564614F179
:10D71000240502D10020FFF70DFA16B90020FFF70B
:10D7200009FA28783070687870700221002005E0CE
:10D730006A68125C7254491CC9B2401C6A78824201
:10D74000F6DC2BF0080040F022008DF82000834624
:10D7500013A80D9004F15400CDE90670CDF8149093
:10D76000CDE9038A0CAB08AD93E807008DE807000C
:10D7700095E80F0002F068FE2D4A0146121F0020B6
:10D78000907040A0FEF7E4FB42F6E571404661F37D
:10D790000F00814694F82D00801C804602F0B0F9FD
:10D7A000054614F12C0602D10020FFF7C3F915B984
:10D7B0000020FFF7BFF93178297071786970022174
:10D7C000002005E07268135C6B54491CC9B2401C10
:10D7D00072788242F6DC2BF0080040F022008DF8CF
:10D7E00020005C34CDE90674CDE9045813A8CDF8C7
:10D7F0000C900CAB0D9093E807008DE8070008AE85
:10D8000096E80F0002F020FE094A0146121F002090
:10D81000D07020A0FEF79CFB284601F041FD504649
:10D8200001F03EFD23B00020BDE8F08F501502004E
:10D83000441F002076735F6164643A25640D0A001A
:10D84000736572766963655F6164643A25640D0A85
:10D85000000000006273635F6164643A25640D0A2E
:10D86000000000006573635F6164643A25640D0A1B
:10D8700000000000647268635F6164643A25640DAF
:10D880000A000000636472635F6164643A25640D9A
:10D890000A000000726472635F6164643A25640D7B
:10D8A0000A00000000280FD000290DD00A88102A95
:10D8B00005D0112A05D0502A06D102F033BD89883F
:10D8C00001E04FF6FF7141877047000000B585B059
:10D8D000002348221449082003F002FA08B1FFF798
:10D8E00029F96A460121002003F0E4F908B1FFF7A5
:10D8F00021F90E4803F0A4F808B1FFF71BF96846B8
:10D9000003F0CEF908B1FFF715F9094803F0BEF9A5
:10D9100008B1FFF70FF9074803F0FAF9002801D022
:10D92000FFF708F905B000BD20220020001E0020EE
:10D930005DD40100050F02001CB5044681786A46DB
:10D940000C4802F015FE002813D160780A49C0EB9C
:10D95000C00001EB80001C231A46694602F0C4FE99
:10D96000054806494C30807A51F820202146684607
:10D9700090471CBDAC1F0020D0260020B41502002B
:10D9800070B50D00044602D10020FFF7D3F814B99A
:10D990000020FFF7CFF82878207068786070A878AA
:10D9A000A070E11CA88803F0D9FCC01CC6B2A11964
:10D9B000E88803F0D3FC3044C6B2A119288903F0EB
:10D9C000CDFC3044C6B2A119688903F0C7FC3044CD
:10D9D000C6B2A119A88903F0C1FC3044C6B2A1198E
:10D9E000E88903F0BBFC3044C0B221182869BDE8C7
:10D9F000704003F0BDBC00007CB5114E0C004FF030
:10DA00000005306015D06946002000F0B1F800280C
:10DA100015D101A9012000F0ABF800280FD19DF825
:10DA2000041009B1022003E09DF8001001B10B20A1
:10DA30002070706810B9FEF7F5FF054628467CBDDA
:10DA4000601F002010B51A4C0188606810290ED0A4
:10DA500011292BD1401E606028D1FEF7E3FF00287A
:10DA600024D02168002921D0BDE810400847D0B952
:10DA700000210122084600F0AFF808B107280FD1B5
:10DA800007220221012000F0A7F808B1072807D1DA
:10DA900004220221002000F09FF820B1072802D0C4
:10DAA000216801B188476068401C606010BD0000BB
:10DAB000601F002010B5032000F020FA08B10628EE
:10DAC00000D1002010BD00002DE9F04707460024DA
:10DAD000244802E0641C042C41D250F82420BA42AD
:10DAE000F8D1042C3BD21F48DFF87C901F4E0C3835
:10DAF000A9F1140841B301290FD002292FD104EB59
:10DB0000440030444578002D29D0D8F81010002961
:10DB100025D02846BDE8F047084704EB4401755C72
:10DB20000E44717861B1D8F804100F4A01EB8101FD
:10DB30004900133A8068FFF7B7F808B988F8017010
:10DB4000B17809F80410DEE78068FFF7EDF804EB20
:10DB50004401314419F804008D78A842D3D0BDE8BF
:10DB6000F08700006C1502005C1F00208424002058
:10DB700004280CD2074A1268074B13F82030012002
:10DB80009840904300D0012008700020704700208A
:10DB9000FAE70000100500506C15020010B50428CB
:10DBA00007D0072810D00A2812D1BDE8104003F092
:10DBB0003BB808481321408876DF07E0002807D0EB
:10DBC000BDE81040FEF7B6BFFFF79EFA0828F5D172
:10DBD00010BD0000001F002070B50023042810D2E3
:10DBE0000D4D00EB4004012A02D101290CD0002286
:10DBF000094E00EB4000304461B1012906D00229F2
:10DC000006D00723184670BD0D30C2B22A55F9E779
:10DC10004270F7E78270F5E784240020044A014649
:10DC20000020127AD20702D0084600F055B870479B
:10DC3000481F002070B50E462149054600200A61A4
:10DC4000C1E90165A9071BD5002401221146204620
:10DC5000FFF7C2FF641C042C02D20028F5D00FE0AD
:10DC600070B9720804211748FEF71AFF40B9FEF791
:10DC700005FF28B91348144A00211438FEF7BAFFEB
:10DC8000E9070AD0114A4FF4F01111600F4B00223E
:10DC90001B1D1A600D4A1032116000280FD109486F
:10DCA0000B4A00211C38FEF7A5FF002807D1BDE86C
:10DCB000704004480121074A1838FEF79BBF70BD29
:10DCC000481F00207C15020039DF010008050050C4
:10DCD00025F701005DCA01002DE9F84F854EDFF8F8
:10DCE00010A24FF4E01CF16807462CEA010C0091E9
:10DCF000002071680AF10404251D7F4B4FF40032A7
:10DD00004FF4802B01EB810E8146182F16D2DFE8ED
:10DD100007F00C17173A4E607083868F868FEAA043
:10DD2000A0A0A0A0CAD1D8E1EAEA009A4FF4F0116D
:10DD300091432160C5F8009086F80090BDE8F88F07
:10DD4000C4F800C04846C5F80090DAF800C08CF46A
:10DD5000F01C5FEA8C3C09D522602860022F02D1BA
:10DD60004FF4E16008E04FF47A6005E02A6020603B
:10DD7000022F3CD04FF4C8706422B0FBF2F0414354
:10DD8000377000225EE0C4F800C04846C5F8009035
:10DD9000DAF800C08CF4F01C5FEA8C3C04D52260F9
:10DDA00028604FF44870E7E72A6020601FE0C4F85D
:10DDB00000C04846C5F80090DAF800C08CF4F01CAA
:10DDC0005FEA8C3C02D522602860CCE72A602060A4
:10DDD000D0E7C4F800C04846C5F80090DAF800C0A3
:10DDE0008CF4F01C5FEA8C3CDED522602860C820F1
:10DDF000C2E7C4F800C04846C5F80090DAF800C091
:10DE00008CF4F01C5FEA8C3C02D52260286001E0B3
:10DE10002A602060377014E0C4F800C04DE0DAF8E2
:10DE200000002BEA0002226000F48020286008E055
:10DE3000DAF800002BEA0001216000F4802028605D
:10DE4000714600221868BDE8F84FFEF72DBF21602B
:10DE50002EE098465868FEF767FFD7F1110100D011
:10DE600040B1F16801F4F0112160C5F80090C6F8E6
:10DE70000C9063E74FF40022F26001290CD9C8200E
:10DE800011FB00F16420B1FBF0F170680022414306
:10DE9000D8F80400FEF708FFF16801F4F0112960DA
:10DEA000C4F800904AE74FF4F0112160C5F80090E3
:10DEB000377043E74FF4E01121604946C5F8009000
:10DEC00006E04FF4D01121604946C5F800905A464B
:10DED0002A60BCE74FF4C01121604946C5F80090A4
:10DEE0004FF4C022F4E74FF4F01129604946AEE741
:10DEF00004050050481F00206015020070B5002185
:10DF00000C4D012455F82120920002F1A042D2F8D4
:10DF1000006704FA01F3034000D0032326F44036DF
:10DF200046EA0343C2F80037491C0429EAD300201B
:10DF300070BD00006C15020000780221FFF7C4BD1F
:10DF400005494FF0FF32082841F8202002D3084449
:10DF500080F848207047000040270020F0B54FF0BF
:10DF6000FF3512B10023082601E008230C260C4CD3
:10DF700005E000BF54F823707F1C04D05B1CB34243
:10DF8000F8D32846F0BD26185DB286F8305044F824
:10DF90002310002AF5D1E11881F84800F1E70000CC
:10DFA000402700200249084490F9300070470000E3
:10DFB000402700202DE9F0413A48017801EB81012A
:10DFC00000EB8104D4E9030600EB40013648241D30
:10DFD00000EB8100B0F808804589476802F04FFBEC
:10DFE000B6FBF0F100FB116080B3002008FB057761
:10DFF0006188A288DFF8B48011448D190022C8F826
:10E00000102040B102F03BFB6188884221D0BD4224
:10E0100001D1A088E8B1A06803281AD002F02FFB34
:10E02000A18844463144B1FBF0F200FB1210800895
:10E03000C8F80C0002F023FBB5FBF0F100FB115017
:10E0400078B10020BD4228D068B126E0FFE701206A
:10E05000CCE702F014FBB6FBF0F10320C8F8141073
:10E060001CE00120EEE7ADB2BEB202F008FBB6FB49
:10E07000F0F702F004FBB5FBF0F0874201D1701B12
:10E0800009E002F0FCFA064602F0F9FAB5FBF0F1FD
:10E0900000FB1150301A800820610220BDE8F041D9
:10E0A00002F0D6BDB8270020142A0020B41F00209B
:10E0B0000648017801EB810100EB8100007904281A
:10E0C00001D000F059B8012002F0C2BDB8270020ED
:10E0D0000A480B4A017801EB810100EB8100C188FD
:10E0E00011620079012805D0032801D0042804D149
:10E0F000FFF760BF012002F0ABBD7047B8270020DA
:10E10000B41F002000EB80020548002100EB8200D4
:10E1100002220171C180C0E9032141610181704780
:10E12000B82700202DE9F041114D069E6C781E2C79
:10E130001BD02F783C441E2C00D31E3C04EB8404DF
:10E1400005EB840420716261D1E90001C4E9030197
:10E15000E38026816878401C68700648007808B91A
:10E16000FFF7B6FF0020BDE8F0810420FBE70000C8
:10E17000B8270020B41F002010B50E4C207800EB0B
:10E18000800004EB80010020091DFEF70BFD2078C4
:10E19000FFF7B8FF6078401E60702078401CC0B266
:10E1A00020701E2801D100202070BDE81040002002
:10E1B00002F04EBDB82700202DE9F05F2648C16867
:10E1C000F1B3DFF898B00E688146DBF800400769CC
:10E1D000C078E11B21F07F45ED1CB0B9DFF88080ED
:10E1E0004FF48030C8F84403C8F804031120FDF749
:10E1F0001FFD1120FDF727FD4FF0010AC8F800A010
:10E200002F20FDF743F989F803A0B54200D2354627
:10E21000124BE8193C3320F07F401860DBF8001007
:10E220005A46091B21F07F41001B20F07F40C91C8A
:10E2300081420FD9106818602F20FDF727F900E000
:10E2400004E0BDE8F05F1120FDF708BDBDE8F05F18
:10E2500002F0A4BBBDE8F09FF81F002004150140A8
:10E26000001001402DE9F04117880646B81D1446FC
:10E270000D46984202D90C20BDE8F0813188072272
:10E2800006290AD34FF4486C4FF6FF73614501D954
:10E29000994202D17088062801D21046ECE7604509
:10E2A00001D99842F9D1994203D0984201D08142D4
:10E2B000F3D80520E85520881221401C80B2208028
:10E2C00029542088401C80B220804119308803F0F6
:10E2D0004AF82188084480B220804119708803F0F0
:10E2E00042F82188084420800020C5E7FEF722BCC0
:10E2F000F8B5134801F0B6F9114D0026114C0C3D4C
:10E3000030B16169B9B101208DF80000684611E0B3
:10E31000287820B1616971B18DF80060F6E76878FE
:10E3200058B1A168084800220068FEF7BDFC10B192
:10E33000A16901B188472E70F8BD6168F2E700005D
:10E34000941F0020D42500209C15020070B5094BB5
:10E35000044608209E7A00250E4208D0A4F57F408E
:10E36000FF3802D01889A04202D10020156070BD8C
:10E37000052070BD1027002000EB40020748012156
:10E3800000EB820081724FF6FF710181FF21C172A3
:10E3900000210160818081717047000010270020FA
:10E3A00010B5134C207900071ED46069401C6061D1
:10E3B000E06808B104200AE001F062F908B1022027
:10E3C00005E0206960B16068C10704D00320BDE8A2
:10E3D000104002F08DBD40F0010060600020F6E7C3
:10E3E000BDE81040FFF764BEBDE8104002F076BD06
:10E3F000B41F002006494868020707D4820702D5E7
:10E4000040F001004860022002F072BD02F066BDDB
:10E41000B41F00202DE9F04100260125144C22E014
:10E420006068226900EBC607387805FA00F11142EE
:10E4300017D08A43226101F0F7FC02463878E3687E
:10E4400005FA00F1194002FA00F3994209D17978EE
:10E45000012901D0012100E0002151407A6802B178
:10E460009047761CF6B220788642D9D3BDE8F08179
:10E47000E01F00202DE9FC410E46044681786A46E3
:10E48000254802F075F8002828D16078234F00EB6A
:10E49000400007EB8000807A400621D4022E1FD076
:10E4A000012E1FD01E4DA0781E49C0EBC00001EB0D
:10E4B000800100231C226846A847A8B1022E0DD077
:10E4C0002078164900EB40000C3101EB8000164922
:10E4D000807A51F82020214668469047BDE8FC81AB
:10E4E000124DE0E7124DDEE7022EF7D0607800EB28
:10E4F000400007EB8000817A21F0400181720749DA
:10E5000060784039C0EBC00001EB80011C231A4643
:10E510006846A847D4E70000AC1F00201027002061
:10E52000650E02000C260020A41502001509020049
:10E53000450802002DE9F04705250F4F9046894612
:10E5400006460024C4EBC40007EB800036B1072266
:10E5500031461030FDF70CF818B106E0018B41454B
:10E5600003D10025C9F8004002E0641C072CE9D360
:10E570002846BDE8F08700000C2600207CB5054643
:10E5800081B26A46074801F0F3FF040008D1742104
:10E59000684602F017F8040002D1284601F09EFFF9
:10E5A00020467CBDAC1F002010B5100001D0FEF746
:10E5B000C1FA002010BD00001FB58DF80C0002F05C
:10E5C00063F808B1FEF7B6FA03A800F01DFB08B126
:10E5D000FEF7B0FA0020CDF805008DF809009DF88F
:10E5E0000500694620F01E0040F001000C3020F0CC
:10E5F00020008DF8050007208DF8060010208DF80A
:10E6000007000648009001208DF80400044800F03F
:10E6100025FC002801D0FEF78DFA1FBDA9E50100F9
:10E62000011F00202DE9F0432DED028B8DB007A9CD
:10E6300006A8CDE9000100210CAB09AA084600F0AC
:10E64000B1FC5FEA000803D53DA0FDF781FC3FE087
:10E650009DED0C0A9FED3E8AF3EE008AF8EE400A2B
:10E6600080EE880A30EE680A10EE100AFCF78DFF83
:10E67000064609980F46814680B200EE100AF8EE71
:10E68000400A80EE880A30EE680A10EE100AFCF7A5
:10E690007CFF04464FEA194000EE100A0D46B8EE22
:10E6A000400AC0EE080A30EEE80A10EE100AFCF745
:10E6B0006CFF41EC100B07989DF81810CDE9041081
:10E6C0008DE8F00053EC102B41462248FDF740FC4A
:10E6D0000A2001F0D1FA00200A900121ADF828109B
:10E6E0000B90ADF82A001C480AAAB0F84410408FDD
:10E6F000A5DF01460B98027818A0FDF729FC164902
:10E700001F486C3102F0CBF914221EA16846FCF7B9
:10E710000BFF69461048FEF7CBFE00280BD00828F7
:10E7200009D0A0F54051043905D043F20141884297
:10E7300001D0FEF7FFF90DB0BDEC028BBDE8F08310
:10E74000726574206572726F723A300D0A000000B3
:10E750000000C84244160200682300206765742048
:10E7600076616C7565206572723A253034582C20BC
:10E7700076616C75653A253032580D0A000000004C
:10E78000081F00200102030405060708090A0B0CF4
:10E790000D0E0F10111213142DE9F04F054693B012
:10E7A000FA48FF240E9400784FF0000A002858D051
:10E7B000DFF8DC83D8F80000002852D001A800F070
:10E7C00017FA08B1FEF7B6F9281D05902A20ADF812
:10E7D00018000027FF208DF806008DF804700097C0
:10E7E000EB4C28880C3CBB4610280FD0A8886A4602
:10E7F0000221FFF7ABFD48B9009800EB400104EBA4
:10E800008101C97A8DF806108DF80500DFF8809334
:10E810002888A9F14C09132109F11C02A2F1E00694
:10E82000172875D010DC10281ED011285ED01328B0
:10E830006FD0142815D1009800EB400004EB800045
:10E84000C07AFF287DD09AE0D24B182877D01C28B8
:10E8500076D0522805D198F80A0053F8201001A864
:10E86000884713B0BDE8F08F4FF6FF766A46012166
:10E870003046FFF76BFD0028F3D10099022201EB2F
:10E88000410004EB8000827211228DF810208DF877
:10E890000510A9880181D5F8061001606989818079
:10E8A000297B8171687DC10708D0B849083101EB27
:10E8B00050000078FF2808D00E9006E032460EA9DE
:10E8C000A81DFFF737FE00280FD100990E9801EB25
:10E8D000410104EB8101C8728A7A42F008028A720F
:10E8E0008DF8060001A8FFF727F86BE1009800EB10
:10E8F000400004EB8001887A20F002008872010752
:10E9000008D500060FD5002101A8FFF7B3FD0AE0E6
:10E91000B8E043E09DF80600FF2804D001F0DEFDDA
:10E92000FF208DF806000099102001EB410104EB57
:10E930008101887212208DF8100043E101E0F9E0B6
:10E940003EE1EA890EA90020FFF7F4FD78B90099AD
:10E950000E9801EB410104EB8101C8728A7A42F002
:10E9600008028A728DF8060001A8FEF7E5FF0098FC
:10E9700000EB400004EB8000C07AFF2804D0009830
:10E98000C0EBC00109EB810A00980023C0EBC00076
:10E9900006EB8002A888514682DF62E700988DF876
:10E9A000101000EB400104EB81018B7A43F004036B
:10E9B0008B72CB7AFF2B32D0162100EBC0008DF882
:10E9C000101002EB80001A210830FCF7C6FD0098F9
:10E9D00000EB400004EB8000817A41F0400181723D
:10E9E0000099CDF82CB001EB410204EB820208AB98
:10E9F000D27ACDF828B0C2EBC20206EB8202CDE992
:10EA00000C2BC1EBC10209EB8201CDE9081BA888E0
:10EA100008F1040200217FDF0028BED1D2E00DF111
:10EA2000380C48F243020020C0EBC00306EB83031E
:10EA30009B7EFF2B04D0401C0728F5D31746CFE759
:10EA40000A78022A0CD0C0EBC00206EB8202FD233A
:10EA500093760B6813618B8893828979917505E0B1
:10EA6000C0EBC00106EB8101FE228A768CF8000023
:10EA700000990E9801EB410104EB81018DF806002D
:10EA8000C872ADE798F8091021F0010188F8091063
:10EA9000DDF800C00CEB4C0304EB8300817A21F01D
:10EAA0000402827214218DF81010A97921B1C07A64
:10EAB000FFF764FDAF7985E0E979490739D59DF81D
:10EAC0000610FF297ED042F008028272EA7A92078D
:10EAD00007D5C1EBC10206EB8202957E25F0010548
:10EAE0009576C27AFF2A6DD014F82320022A0ED020
:10EAF000C1EBC10106EB810102680A6182888A824A
:10EB000080798875887E20F0020088760DE0CCEB55
:10EB1000CC0209EB8200428AC1EBC10006EB800007
:10EB20000283817E21F001018176012101A8FFF796
:10EB3000A1FC47E0A8790121B1EB101F2CD100F016
:10EB40000F00012828D1009800EB400104EB81015F
:10EB5000897A090720D500EBC00002EB80001A215A
:10EB60000830FCF7FAFC16208DF81000009800EB36
:10EB7000400004EB8000817A41F06001817298F8D6
:10EB8000091041F0020188F8091017E09C1F0020CD
:10EB90001C270020C4150200009800EB400004EB85
:10EBA0008000817A41F08001817215208DF810007B
:10EBB00098F80A0053F8201001A88847002701E0C0
:10EBC0008DF810103A4604A901A8FDF7BDFF9DF885
:10EBD000100012287FF4E1AE009800EB400104EB36
:10EBE0008101897A01293FF4D8AEFFF7C5FB38E6E9
:10EBF00030B1FF21017041708170C17000207047F9
:10EC000048F20E00704700002DE9FF4105003AD0A0
:10EC10002B4800240460447284722046FFF7ACFB4A
:10EC2000274824213038FCF798FC0026DFF8948030
:10EC3000FF27304601F052FC08F80670761C072EBC
:10EC4000F7D37420ADF804000720ADF806001E4885
:10EC50001C4900900831684601F09AFD00280FD148
:10EC6000184E0120083E3070287878B1BDF80400B5
:10EC7000BDF80610484381B206F1100001F0A2FC75
:10EC800004B0BDE8F08148F20E00F9E70F4F00250F
:10EC90000C48A9B202AA083001F06AFC48B9C5EBD9
:10ECA000C50007EB800000231C2202A901F01CFD17
:10ECB00008B13470E4E76D1C072DE9D3E0E70000EC
:10ECC0001C270020A41F0020D1EC01000C260020EE
:10ECD0002DE9F04F80465D488FB01E460068189FB2
:10ECE00093468A46002870D0742F6ED86846FFF786
:10ECF0007FFF08B1FDF71EFF00248DF800408DF85E
:10ED00000440CDE905762546A9B20DAA504801F088
:10ED10002FFC28B908220DA94046FCF729FCE0B1D8
:10ED20006D1C072DF0D300BF9DF80200FF284CD0CA
:10ED30004FF020094FF0400C04ADBAF1030F0FD093
:10ED4000444A1C27B11AB1FBF7F1012307291AD253
:10ED50000295BBF1000F0BD010E08DF80250E3E7F5
:10ED6000742F02D08DF804C067E08DF8049064E041
:10ED700037498340103949680B425BD002F002FBEF
:10ED80008DF8049046E031494C39A6EB0108B8FBF8
:10ED9000F7F7DFB101F11C02B11A2427B1FBF7F735
:10EDA00002F1240147B32C4A8DF804C0964244D0A6
:10EDB000A1F5907252F82020B2423BD10295C97A57
:10EDC000884227D18DF8014024E033E01F488DF8B8
:10EDD00004908DF801400C30CDE90A409DF8020006
:10EDE0000295C0EBC00002EB8000089007A80690D7
:10EDF0001820079105900DE030208DF801408DF826
:10EE000004008DF80330887A800703D4104624214B
:10EE1000FCF7A3FB9DF80400BAF1020F12D040F0FA
:10EE2000020000BF8DF804005A4601A96846029509
:10EE3000FDF78AFE0FB0BDE8F08F9DF8040040F0AA
:10EE40000300EFE740F00100ECE700001C27002082
:10EE5000AC1F00200C260020A0150200174A10B598
:10EE600012785AB148F20E0258B151B10B6843B151
:10EE7000134A14683CB148F2040010BD48F208007F
:10EE800010BD104610BD0E4C13602C3CD1F805305F
:10EE900023634B7A84F834300979917223F00501A9
:10EEA00041F002011172D17921F0040141F0030116
:10EEB000D17100210170084610BD00009C1F002088
:10EEC0001C27002070B50D00044602D10020FDF77C
:10EED00031FE14B90020FDF72DFE287820706878E7
:10EEE0006070A878A070E878E07028792071611DC2
:10EEF000A868BDE8704002F03BBA00000E4910B5AA
:10EF00004A788C780023A24212D0521CD2B24A70A6
:10EF1000022A00D14B70084A4B78183252F823204D
:10EF200002600869104420F07F400861012010BD94
:10EF30000360002010BD0000F81F00208268838855
:10EF40001A4003689A5C0A708168491C81607047A6
:10EF5000C26883881A4003689954C168491CC1601B
:10EF600070470000002808D0112801D0FDF730BEFE
:10EF70000248416841F0080141607047B41F002019
:10EF8000064910B5CA68C969054B002000FB012479
:10EF900043F82040401C0828F8DB10BD101F00205B
:10EFA000E42300202DE9F043324CDDE90789257880
:10EFB000F5B3314F656A05B34FF4FA75E580A6786D
:10EFC00007F12005B4F808C055F82650A5EB0C054C
:10EFD000656157F826C0AC4503D9D4F81CC0654418
:10EFE0006561244D2835AD5D88F80050224DA67826
:10EFF000403555F82660C9F800600025656210B1FB
:10F000006669366806606069001D606109B1006864
:10F0100008606069001D60610AB100681060606985
:10F02000001D60610BB1006818606069001D00E0A0
:10F0300014E06061A178E36957F82120134483420A
:10F0400000D12261E088401E0004000CE08007D15E
:10F05000491CC9B2A170082904D004E04FF0FF3068
:10F06000BDE8F083A5702178491E217001216162FD
:10F07000F6E70000101F0020E4230020F0B5444C08
:10F0800006460D46207808287ED02046006962B1E9
:10F090000121E1703F4F617847F8210004F1280712
:10F0A0007A543C4A203242F82130A169B0FBF1F297
:10F0B00001FB120109B900F0B7F82EB1216A481C12
:10F0C0002062206900F0CCF82069001D206126B183
:10F0D000216A4A1C226200F0C3F82069DFED2E0A83
:10F0E000001DB3EE000A2061BDB195ED011A31EEAD
:10F0F000001A21EE201ABCEEC11A11EE101A95ED7D
:10F10000001A31EE001A21EE201ABCEEC11A11EEDF
:10F11000102A41EA024100F0A3F82069001D206195
:10F120005DB195ED021A31EE000A20EE200ABCEE28
:10F13000C00A10EE101A00F093F82169154A091D53
:10F1400021616078203AE56952F820301D448D42F3
:10F1500000D12361E17811B1A188491EA180A18865
:10F1600089B90021401CE1704FF4AF73C0B2A38095
:10F170006070082800D16170607852F8200020612A
:10F180002078401C207000E000E02078F0BD0000F6
:10F19000101F0020042400200000C84210B51F4C9E
:10F1A000204621784068012910D002292DD003295A
:10F1B00032D1000725D46069401C606100F060FA1C
:10F1C000D8B12078BDE8104001F042BD000718D446
:10F1D0001348A28B017801EB810100EB8100C1880B
:10F1E000891A0904090CC18003D0BDE8104001F060
:10F1F0003BBEBDE81040FEF7BFBFBDE81040FEF7C4
:10F2000057BFBDE8104000F071BC0648617850F867
:10F210002100BDE81040004710BD0000B41F0020D1
:10F22000B827002008160200094A02211160094986
:10F230000B68002BFCD0064B1B1D186008680028CB
:10F24000FCD00020106008680028FCD07047000047
:10F2500004E5014000E4014028DFFFF783BE000021
:10F26000084B10B501221A60074A1468002CFCD024
:10F27000016010680028FCD0002018601068002889
:10F28000FCD010BD04E5014000E4014029DFFFF798
:10F2900069BE10B50446C0B2FDF7C0FD204610BDE2
:10F2A00010B5002821D0114B0022001F196803E07F
:10F2B000814203D80A4649680029F9D152B113683E
:10F2C000841A9C4204D1006818441060104602E081
:10F2D000506000E0186039B102680B1A934203D104
:10F2E0000B681A4402604968416010BD302000205C
:10F2F0000EB517A19DF8080020F00F00401C20F06B
:10F30000F00010308DF80800082202A87CDF08B158
:10F31000FDF710FC40F2413078DF08B1FDF70AFC40
:10F320000020009001904FF4A071ADF80400ADF8FA
:10F3300000104FF4C8704FF40271ADF80600ADF83C
:10F34000021068467ADF002801D0FDF7F3FB0EBDFE
:10F3500047696C6C5F424C4500000000002070471C
:10F3600000207047002070472DE9F0474178DFF812
:10F37000A490054601EBC10209EB8200002401EBD9
:10F38000410109F1240A4368274626460AEB810118
:10F3900063B191F80AC05FEA0C6807D55FEA4C6C6C
:10F3A00004D459F8226000F108049FB20889D046BD
:10F3B00033463A462146A9DF48F241090B281CD0C2
:10F3C00000B14846012E16D168784FF6FF7200EB67
:10F3D000400008EB80000C210089A7DF00280AD03C
:10F3E000A0F54051023913D0082811D0891E0FD042
:10F3F00011280DD00020BDE8F0876878012300EBCC
:10F40000400008EB80003A4600892146A9DFDBE78F
:10F410004846F0E7EC26002070B50C4601466078BF
:10F420000A4D00EBC00005EB80003823242201F0D8
:10F430005BF9002808D1617801EBC10105EB81017E
:10F440004A68521C00D14A6070BD0000EC260020C2
:10F450002DE9F04188B0804603271A20ADF81C0042
:10F4600048782A4E00EB400006EB80000D460089EC
:10F470003B4607AA6946AADF28BB6878A6F12404A0
:10F4800000EBC00004EB8000BDF81C20694608308A
:10F49000FCF76EF80028687807D000EBC00004EB9A
:10F4A0008001496881B11A4E0FE000EB400106EB84
:10F4B0008101897A890724D400EBC00004EB800025
:10F4C0002421FCF74AF81CE0124E44F820706878BA
:10F4D000BDF81C2000EBC00004EB800069464260D0
:10F4E000687800EBC00004EB80000830FCF71CF8E3
:10F4F0006878382300EBC00004EB800124224046EA
:10F50000B04708B00020BDE8F081000010270020BF
:10F510001509020045080200FFF726BFFFF77CBF70
:10F52000FFF796BF2DE9F041124E07460125BD4079
:10F530003068FDF7F9FB00280DD10F4C20692842F7
:10F5400007D1384600F070FC0028E06805D0284359
:10F5500004E0A8432061BDE8F081A843E060206991
:10F5600028432061A1683068BDE8F0410022FDF722
:10F570009BBB00003C160200E01F002070B51B4C36
:10F58000207900072DD41A48017801EB810100EBA6
:10F5900081052E6901F073F8E9882A89761E1144E5
:10F5A0003144B1FBF0F02169002549B16169814224
:10F5B00006D1E560606840F001006060002008E06E
:10F5C00000F05EF810B10220E56002E0206920B191
:10F5D0000320BDE8704001F08BBCBDE87040FEF731
:10F5E00067BDBDE8704001F079BC0000B41F002089
:10F5F000B8270020F8B51A4C207800282ED02069B2
:10F6000028B10026E06820B1002526B110E00126CF
:10F61000F8E70125F9E7684652DF052803D020B155
:10F62000FDF788FA04E0012602E021690098884786
:10F6300085B96088ADF800006946A06861DF0528DB
:10F6400003D020B1FDF776FA04E0012502E0D4E909
:10F6500002018847002EDED0002DD6D0F8BD000074
:10F6600018200020054940880A88904204D3498820
:10F67000884201D801207047002070478C1F00206D
:10F6800070B50E48017801EB810100EB810425691A
:10F6900000F0F5FFE18822896D1E11442944B1FB79
:10F6A000F0F1074842698A4205D301D1006910B1DF
:10F6B0004FF0000070BD4FF0010070BDB827002072
:10F6C000B41F0020800701D0002070470120704740
:10F6D00030B51488E51C9D4201D90C2030BD0225AF
:10F6E0000D5513881C245B1C9BB21380CC541388CB
:10F6F0005B1C9BB21380012807D0022807D0032887
:10F7000007D0042807D0072030BD002004E00120E6
:10F7100002E0CD5401E00320C8541088401C108042
:10F72000002030BD0348017AC90702D00078FEF7F7
:10F73000D3BA7047481F00202DE9F047DFF8ACA08E
:10F74000DAF80C009AF8004080469AF80460DAF87B
:10F750000890DAF810703AE009EBC4052A7833E033
:10F7600002EB42016B68521C03EBC101AB78D2B2D1
:10F77000934200D100220B78022B02D0032B23D11D
:10F780001FE0D1F804C00346014603E0614503D001
:10F790000B46C969C1B1F9E7B1B18B4205D1C06966
:10F7A00018B9134F0126BE600027D1F800C0C969FF
:10F7B000D96149B10B6863440B6005E00174C0690D
:10F7C00000E000210028F9D169789142C8D1641E77
:10F7D000E4B2C1D2CAE903078AF80460404502D006
:10F7E0000120BDE8F0870020FBE70000F81F0020A3
:10F7F000001001402DE9F04705462F4800268046BD
:10F800000778D0F80C904BE0D8F8080000EBC7045C
:10F8100040E002D02846ED691EE02078616800EBE8
:10F820004002401CC0B201EBC2012070A27890429D
:10F8300000D126700A784868012A2DD1027C5ABB73
:10F840008A684260CA6882600A69C26049698161E7
:10F8500098F8041001B146604268D8F81030DFF81B
:10F860005CC0D11A21F07F41614502D28268114407
:10F8700006E0991A826821F07F418A4202D9511A22
:10F88000016000E006604660012186600174C66187
:10F8900001F092FB002DBCD1207861788842BCD168
:10F8A0007F1EFFB2B0D2D8F80C10494502D001201B
:10F8B000BDE8F0870020FBE7F81F0020FFFF7F0076
:10F8C000724F9CB0381D04AB07C883E8070070482E
:10F8D0000124CDE900046F48029020020390032325
:10F8E0006D4A694604A8FDF747FA08B1FDF722F909
:10F8F0006AA0FCF72DFB00236F4A05211846FDF78F
:10F900008BF908B1FDF716F96C4A01215F48FDF744
:10F9100071F908B1FDF70EF9694A40F6CD410320AF
:10F92000FEF788F908B1FDF705F969460020FEF7F2
:10F9300063F808B1FDF7FEF89DF8000002286FD0CB
:10F940005FF00005FDF7C2FF2846FEF735FEFFF722
:10F95000CFFC382101A8FBF700FE02208DF804003F
:10F960008DF8064006208DF807004948ADF8144090
:10F97000001D0690242112A8FBF7EFFD4FF49670AE
:10F980001690B420002517908DF854404D4B12AAC4
:10F990002946009501A8FDF7C7FA08B1FDF7CAF896
:10F9A00001F0CEF848482021C0E90041846004738A
:10F9B00001463748083001F067F81C216846FBF71C
:10F9C000CCFD4FF42030CDE900504FF47020029070
:10F9D00003208DF80C003D4805903D4806908DF8B9
:10F9E00010506846FDF798FC08B1FDF7A3F89FEDAD
:10F9F000390A8DED0F0A9FED380A8DED100A9FED43
:10FA0000370A8DED110AFFF7BBFA4FF47A7640F210
:10FA100007744FF4FA78751E40F2F31915E0FFE70A
:10FA200001258FE7B44207D1234601220FA9002008
:10FA3000FFF724FB2C46F5E7444506D12346022276
:10FA40000FA90020FFF71AFB4C4600231A460FA906
:10FA50001846FFF713FB641EE4D200224FF48031F6
:10FA60003868FDF721F908B1FDF764F80320FDF7C8
:10FA700067FB08B1FDF75EF819A0FCF769FA48DFEB
:10FA80000028FCD0FDF756F8F9E700004015020009
:10FA9000001F0020682200206911020050425320FC
:10FAA000737461727420696E697469616C697A61DA
:10FAB00074696F6E0D0A00005820002025E60100D1
:10FAC0009DDB0100E5020200D423002009030200AF
:10FAD000EDE20100A4709D3F52B87A4152B87AC15C
:10FAE0004144562073746172740D0A0003484168E2
:10FAF00021F008014160007801F0AAB8B41F00208D
:10FB0000F0B50B30154D20F007010024144A0FE02A
:10FB100003688B420BD38B4205D95E1A43184768A2
:10FB2000C3E9006700E04368136002C004E0021DFF
:10FB300010680028ECD12046002802D1286808B1BE
:10FB40000020F0BD064A07481060074A121A22F04A
:10FB50000702C0E9002401202860D7E734200020F4
:10FB600030200020742A0020704A002070B514460E
:10FB700082880E4605462088111D0144921C994238
:10FB800001D8FE2A01D90C2070BD521C32542088A5
:10FB9000FF21401C80B2208031542088401C80B25C
:10FBA00020808119288801F0DEFB2188084480B27A
:10FBB0002080AA8842B1A96841B13044FBF7B4FC67
:10FBC0002088A98808442080002070BD072070BDCF
:10FBD000F8B50E46017814460546012901D168782A
:10FBE00030B12088821C9A422DD8012902D006E02B
:10FBF0000720F8BD69780144891C994223D8181A56
:10FC0000801E87B2ADF800702188B01C0844694698
:10FC10007DDF0028EDD12878022805D1BDF800103D
:10FC2000B94201D809210AE00821012805D16878E4
:10FC3000B84202D8ADF8000001E0ADF80070BDF8A0
:10FC40000000FE2801D90C20F8BD2288401CB054C9
:10FC50002088401C80B2208031542088401C2080A5
:10FC6000BDF80010084420800020F8BD0020704737
:10FC7000002070470020704731B540F2E73404E0BF
:10FC8000401E00902046FBF7C5FB00980028F7D1E6
:10FC900038BD4907090E002806DA00F00F0202F10C
:10FCA000E02282F8141D03E000F1E02282F8001443
:10FCB00000F01F02012191404009800000F1E02086
:10FCC000C0F88012C0F80011704700002DE9F0471D
:10FCD0008846814600F022FC0124224E0028484636
:10FCE00018D0FEF75FF9304490F8480080090328E7
:10FCF00002D0012806D007E01B48006804FA09F486
:10FD0000204201D1022100E003214846BDE8F0472E
:10FD100000F0B7BA00F00EFC002820D04846FEF7ED
:10FD200041F90546114F4FF4807007EB850100EB58
:10FD30008500D1F8102580B242F00102C1F81025EB
:10FD400000F0AEFAB8F1000F09D04846FEF72AF9E4
:10FD500056F82000002802D0AC40C7F80443BDE8A4
:10FD6000F087000040270020100500500060004090
:10FD70002DE9FC41DFF8A480044608EB04000027CD
:10FD800090F930001346C0170E46401C01D00827DA
:10FD900040E0F27819462046FEF7E0F80546401CA0
:10FDA00037D0B07848B1A00000F1A040D0F80017DB
:10FDB00021F00201C0F8001707E000217378204607
:10FDC00000910A46019100F027FAF078C0B114487A
:10FDD000317800EB8500D0F81025124B1A40C0F89E
:10FDE00010254FF4F8524FF4403302EA042203EA9C
:10FDF00001410A43D0F810150A43C0F8102509E064
:10FE000008EB0500327810F8481F41EA82110170B2
:10FE100000E004273846BDE8FC81000040270020B0
:10FE200000600040FFE0FCFF03490968C14011F099
:10FE3000010000D0012070471005005070B5124D30
:10FE400095F8540008B1082070BD0020411E2A1802
:10FE5000401CC0B282F830102028F8D3002420467D
:10FE6000FEF76EF8641CE4B20C2CF8D303210620D4
:10FE7000FFF70FFF05494FF00040C1F804030120D0
:10FE800085F85400002070BD40270020006000402D
:10FE9000034890F85400002800D00120704700006B
:10FEA000402700202DE9F0411E4C07460D46E07E1C
:10FEB00010B10820BDE8F08107B91B4F787F20778B
:10FEC0003846FCF7C1FF6560386920602800174E8E
:10FED0004FF0000516D0397F207F48B1C6F8105189
:10FEE000C6F82051C6F82451C6F84451104804E021
:10FEF000C6F81C51C6F844510E48C6F80403022047
:10FF0000FFF7C7FE207F08B1082000E00420C6F8F4
:10FF10000005E5752576A5750120E076A57600201B
:10FF2000C8E7000098270020D415020000200040F8
:10FF300010030200800002002DE9F0411F4B1C7FDE
:10FF40003CB14FF40052B2EB104F02D01020BDE88C
:10FF5000F081D3F804C00022194D4FF404764FF419
:10FF60000177BCF1000F05D014B1C5F8086301E0BA
:10FF7000C5F8087393F817E0BEF1000F10D01A7E91
:10FF800052B1BCF1000F05D014B1C5F8046301E013
:10FF9000C5F804731120DAE718610122197604E02C
:10FFA000D9750025D8605D761D761CB1BDE8F0419D
:10FFB00000F066B8BDE8F04100F014B898270020C2
:10FFC0000020004010B5064C207F002806D1A07EFE
:10FFD000002803D100F028FD0120A07610BD00000C
:10FFE000982700202DE9F05F234DA87E104301D112
:10FFF00000F01AFD214C686830B14FF40170C4F86C
:020000040002F8
:1000000004030020BDE8F09F4FF000094FF4A27AEE
:10001000C4F844914FF4927BA8465946204600F01C
:1000200051F905464FF48471204600F04BF907461C
:100030005146204600F046F9064647EA06012943A4
:10004000EBD055EA060007D100F0C6FC98F817106F
:1000500098F819008142E0D888F817900DB1032074
:10006000D0E70EB10F20CDE798F81A10012009B1A2
:100070002060C6E76060C4E79827002000200040A9
:100080002DE9F05F204C00264FF48873C4F810610E
:100090004FF4A275C4F84461C4F83405C4F83815A7
:1000A0008AB1D4F8000240F02000C4F80002DFF862
:1000B0005C80D8F8040048B14FF40470C4F804031D
:1000C0000020BDE8F09F01202060F0E79A46A94695
:1000D0004FF4927B5146204600F0FFF80546494612
:1000E000204600F0FAF807465946204600F0F5F899
:1000F0003D430543EED088F8176008B10320E0E7E0
:10010000002FDDD00F20DCE70020004098270020E2
:100110002DE9F0471E4D2A7F3AB14FF40053B3EB5F
:10012000104F02D01020BDE8F087AB7D0BB111203D
:10013000F9E7A9750023A860AB822AB3154C002605
:100140004FF490729846C4F820314FF4AC73C4F861
:100150005881C4F84405C4F848150120A0606868B7
:1001600080B9924699465146204600F0B6F80746B7
:100170004946204600F0B1F80743F4D000B10F26FD
:1001800085F816803046CEE7BDE8F04700F004B8A9
:1001900098270020002000402DE9F05F1C4F00252B
:1001A0004FF48E7A2E46C7F81C514FF00108C7F85D
:1001B000088000F061FF174CB815616879B123E041
:1001C0005F465146484600F07DF810B9A08AB84213
:1001D000F7D1A08AB84204D000F04EFF01E0834678
:1001E000B946A08AA17D8842EAD3A08A584501D1A8
:1001F0000F2508E04F465146384600F063F80028C6
:10020000F9D0C7F80C80A6752846BDE8F09F00001D
:10021000002000409827002030B541EA4201DDE986
:10022000034541EA8301800041EA042100F1A04036
:1002300041EA0541C0F8001730BD30B541EA42013E
:10024000DDE9034541EA8301800041EA042100F130
:10025000A04041EA0541C0F8001730BD1CB500229E
:100260000B46009211460192FFF7E7FF1CBD1CB53B
:10027000002100910B46012201911146FFF7DDFF9D
:100280001CBD800000F5E06000F1A040026822F48F
:1002900040320260026842EA01410160704700009A
:1002A000034908B50844002101600068009008BDBA
:1002B0000060004002494058012800D000207047EB
:1002C000006000404058002800D001207047D0F85E
:1002D0000403084000D0012070474058002800D097
:1002E0000120704710B550B103280CD10220FDF752
:1002F00095FC002807D0BDE81040FCF71BBCBDE80A
:10030000104000F091BC10BD0078002807D10448CF
:100310003B21408876DF002801D0FCF70BBC7047FA
:10032000001F002070B506460C4628A0FBF710FE03
:10033000E5882EA02946FBF70BFE04F12000427849
:1003400001782EA0FBF704FEA41D0D2D19D0314A13
:100350000E2D19D0112D25D0142D11D11078002873
:100360000ED0507800280BD02088B6F8581088425C
:1003700006D1208B022803D1907880F00100907084
:1003800070BDA07E307570BD2088B6F848108842D8
:10039000F9D1208B0228F6D1107880F0010111707C
:1003A0001DA00FE010780028EDD02088B6F850107E
:1003B0008842E8D1208B0228E5D1507880F00101F5
:1003C00051701BA0BDE87040FBF7C2BD626C655F59
:1003D0007062735F6F6E5F626C655F6576745F6F8E
:1003E0006E5F77726974650D0A00000068616E6463
:1003F0006C653A253034580D0A0000006461746160
:100400005B305D5B315D3A253032582C25303258F7
:100410000D0A0000401F00206573635F6E6F7469F2
:1004200066795F666C61673A25640D0A000000001A
:10043000647268635F6E6F746966795F666C61672A
:100440003A25640D0A0000000FB402202DE9F041A6
:1004500086B015AF149E97E830018DF84E0016B99E
:100460000020FCF767FB14B90020FCF763FB0027B2
:10047000059728788DF8140068788DF815009DF898
:100480001600142120F00600801C20F019008DF8C1
:1004900016006846FBF761F813A8009005A80190C4
:1004A0000848ADF80840ADF80A70ADF80C40049665
:1004B00043466A460CA98088A2DF06B0BDE8F00179
:1004C0005DF814FB401F00200021425C0AB10120AE
:1004D0007047491C0629F8D30020704770B50546BF
:1004E000C0EBC5010C48002600EB81042046C4F88F
:1004F0001160A4F815601021FBF72FF8FF2020747D
:10050000A0764FF6FF702083284600F03BFF02489C
:100510001C3840F8256070BD0C26002004490844B2
:1005200090F93000082801DB012070470020704757
:10053000402700200449084490F93000082801D2DF
:1005400001207047002070474027002006490979A4
:10055000490701D40820704720B104494978016057
:10056000002070470E207047B41F0020B8270020DD
:1005700070B5124B1B795B0701D4082070BDB8B170
:10058000B2B10368022B11D20D4C03EB430554F8B2
:1005900025605EB1466804EB8500048945684089A2
:1005A00001FB046100FB0450884203D8072070BDA2
:1005B0000E2070BDC2E90031002070BDB41F0020C4
:1005C000142A0020F8B5044623480E460079400757
:1005D00001D40820F8BD24B32068022831D21F4D71
:1005E00000EB400055F8201059B305EB800042891C
:1005F0004168008902FB00116068814221D9FFF740
:1006000061F880B1D4E9000200EB400005EB800006
:1006100043680189D51AB5FBF1F701FB175585B978
:1006200003E00E20F8BD1020F8BDB6FBF1F501FB8C
:10063000156535B92EB14089414390191944884256
:1006400001D90720F8BD002002460090334621461C
:100650000320FDF767FDF8BDB41F0020142A002019
:1006600010B54FF010204469601C04D000F007F86A
:10067000B4FBF0F010BD4FF08050406910BD4FF05A
:100680008050006980B2704770B514480024254638
:10069000047044702846FDF735FD6D1C1E2DF9D3FE
:1006A0000F4D6C80FFF7DCFFC61EFFF7E8FF4643E7
:1006B0000C49AE6000206C6100EB4002401C41F828
:1006C000224001EB8202022814815481F4D32C7061
:1006D000AC610420EC616860002070BDB827002088
:1006E000B41F0020142A00202DE9F8438046264834
:1006F0001F46164600790C46400702D40820BDE884
:10070000F883ECB1B8F1000F1AD02068022815D296
:100710001E4D00EB400055F8201079B105EB80002C
:1007200042894168008902FB00116268914205D943
:1007300026B1B04202D3F119814203D90720DEE786
:100740000E20DCE74046FEF7BDFFD0B13846FEF78D
:10075000B9FFB0B16068FEF7B5FF90B1606832468E
:10076000C1194046FAF7E0FE00962068002200EB2F
:100770004000434655F8205002212046A84700205B
:10078000BDE71020BBE70000B41F0020142A0020A2
:100790002DE9F041294D04460E462879400702D440
:1007A0000820BDE8F081ECB1E6B12068D0B1FFF7D8
:1007B00066FF0146A088814212D3102810D3E0883A
:1007C00070B1FFF74DFF471EFFF759FF4743E2881F
:1007D000A188A86802FB0102974201D3890703D0D0
:1007E0000720DEE70E20DCE76988022924D0C6E96D
:1007F0000010134A01EB410302EB830148602068BB
:1008000042F82300A0880881E0884881FFF737FF7D
:10081000A188E288401E01FB0204FFF730FF94FB31
:10082000F0F4FFF72CFFA96804FB0010A8606888AB
:10083000401C68800020B4E70420B2E7B41F002009
:10084000142A0020F8B504461E481E4615460079B5
:100850000F46400701D40820F8BDDFB1D4B12068AD
:10086000022815D2184900EB400051F820207AB137
:1008700001EB800042894168008902FB0011626837
:10088000914205D925B1A84202D3A919814203D9C1
:100890000720F8BD0E20F8BD3846FEF713FF78B1EB
:1008A0003046FEF70FFF58B16068FEF70BFF38B116
:1008B0002B463A46214601200096FDF733FCF8BD51
:1008C0001020F8BDB41F0020142A00201049024651
:1008D000087800281AD0042818D0022A14D0032A35
:1008E00014D10A7912070FD48A69521C8A61B2F5B1
:1008F0007A7F06D0022801D000F0AAB9487800F02B
:10090000F7BA0D20FCF764B9FEF748BC7047000049
:10091000B41F0020F8B504461E481E46154600794F
:100920000F46400701D40820F8BDDFB1D4B12068DC
:10093000022815D2184900EB400051F820207AB166
:1009400001EB800042894168008902FB0011626866
:10095000914205D925B1A84202D3A919814203D9F0
:100960000720F8BD0E20F8BD3846FEF7ABFE78B183
:100970003046FEF7A7FE58B16068FEF7A3FE38B117
:100980002B463A46214604200096FDF7CBFBF8BDE6
:100990001020F8BDB41F0020142A002070B50126D5
:1009A00070044FF0E0210025C1F88001084C401090
:1009B000C4F84803C4F8080366602F20FAF766FD00
:1009C000A660044C2F202561FAF760FDE57070BD2C
:1009D00000100140F81F002009480A490022C37D89
:1009E000C1F8082143B1D1F81815437EC268D1542B
:1009F000417E491C41767047D1F8180570470000C8
:100A000098270020002000401FB501228DF8080023
:100A100004488DF800200191D0E900126846904703
:100A20001FBD00009827002004480021C0F82411B1
:100A3000C0F808110121016070470000002000404B
:100A400008B502490020009108BD0000001F0020E9
:100A500010B503680A6889689C1A8C4202D9591A31
:100A6000016010BD01210260017110BD10B54B681D
:100A7000026889689C1A8C4202D91144016010BD39
:100A800000210360017110BD0A7B1AB14968016041
:100A9000002102E00968016001210171704710B571
:100AA000044600790028204602D0FFF7DFFF01E06E
:100AB000FFF7CEFF206810BD2DE9F0410746806AA0
:100AC00014468846C8B3002531E000BFB96A05EB7B
:100AD000450001EB8006B088801CFE2802D90C205E
:100AE000BDE8F0812288401C08F802002088162208
:100AF000401C80B2208008F800202088401C80B272
:100B0000208000EB0801308800F02DFC218808448B
:100B100080B22080B28842B1B16871B14044FAF726
:100B200003FD2088B188084420806D1CEDB297F841
:100B30002C00A842CAD80020D2E7FFE70720CFE761
:100B400070B5334C8AB000256C2120466566FAF7F3
:100B500004FD94F83400032120F00F00401C20F025
:100B6000F000103084F8340094F8350041F204129B
:100B700020F00F00401C20F0F000103084F8350009
:100B800094F83600122620F00F00401C20F0F000F0
:100B9000103084F83600257002206070A170A280A9
:100BA00042F20522E2800622228107226281082287
:100BB000A2810922E2810A2222612575E5820125AE
:100BC00025766076A1760420E07605202077FF2048
:100BD000206284F8245084F8256014220DA1684610
:100BE000FAF7A2FCC4F828D084F82C5084F82D60C1
:100BF000142105A8FAF7B1FC05A820632046FCF7EC
:100C0000ADFC002801D0FBF795FF0AB070BD0000D5
:100C1000682300200102030405060708090A0B0CDB
:100C20000D0E0F101112000010B50020FCF7F6FF9A
:100C300008B1FBF77FFFFCF73DFF08B1FBF77AFF38
:100C40003CDF002803D0BDE81040FBF773BF10BDA8
:100C50000C49087040B101280FD002280FD003289A
:100C60000FD14869FEF7F8BA00208861C8610648CC
:100C70004078002805D0FDF72BBA00F0F5B800F059
:100C800051B87047B41F0020B827002018B103499D
:100C9000C860002070470E20704700001820002018
:100CA0001CB5034901910091694660DF1CBD00003D
:100CB000001F002070B50E4605461446142110464C
:100CC000FAF74BFC0120208000212161217326725C
:100CD000657205B1A072002070BDFBF719BF00005E
:100CE00070B509B18C0701D0072070BD064C0125F5
:100CF000A16062800549636010DF0028F5D125708E
:100D000016202EDF70BD000018200020DB0C020032
:100D100018B103490861002070470E207047000099
:100D2000182000202DE9F041164C606820F00100E9
:100D300060601548017801EB810100EB810635699F
:100D4000FFF79DFCB5FBF0F76761FFF798FCF188B2
:100D50006D1E2944B1FBF0F08742606802D140F07B
:100D6000020001E020F0020060602079E16800F0FC
:100D70000200084304D00020BDE8F04100F0B8B8FC
:100D80000220F9E7B41F0020B8270020014840697D
:100D9000FEF762BAB41F002010B5FFF761FC441ED5
:100DA000FFF76DFC4443FFF76AFC05494A69521E90
